:10000000F8FF002011040000DB230000DB230000C8
:10001000DB230000DB230000DB230000DB230000E8
:10002000DB230000DB230000DB230000DB230000D8
:10003000DB230000DB230000DB230000DB230000C8
:10004000DB230000DB230000DB230000DB230000B8
:10040000FFFFFFFFFFFFFFFFFFFFFFFFFEFFFFFFFD
:1004100062B60CF0D5FEFEE710B500200400E4B291
:10042000082C08DA0022012114F14000C0B201F0CA
:1004300009FE641CF3E700220121492001F002FEBD
:10044000012201214A2001F0FDFD012201214B2062
:1004500001F0F8FD002201214C2001F0F3FD002203
:1004600001214D2001F0EEFD4FF4A071492001F073
:10047000ABFE4FF4A0714A2001F0A6FE4FF4A0712C
:100480004B2001F0A1FE4FF4A0714C2001F09CFE26
:100490000020DFF8241D08600120DFF81C1D086023
:1004A0004FF4FA7001F003FF0120DFF8101D08601F
:1004B0000020DFF80C1D08600020DFF8081D086030
:1004C0001120DFF8041D08700020DFF8001D08600F
:1004D0000120DFF8F81C08600120DFF8E81C086044
:1004E000782001F0E4FE0120DFF8D01C0860002035
:1004F000DFF8CC1C08600020DFF8C81C0860B120C1
:10050000DFF8C41C08700020DFF8C01C0860012060
:10051000DFF8B81C08600120DFF8A81C0860012083
:10052000DFF8981C08600120DFF8941C08600020A8
:10053000DFF8901C08600520DFF88C1C0870002094
:10054000DFF8881C08600120DFF8801C08600120AB
:10055000DFF8701C08600120DFF8601C08600120D3
:10056000DFF85C1C08600020DFF8581C08603A20A7
:10057000DFF8541C08700020DFF8501C08600120D0
:10058000DFF8481C08600120DFF8381C08600120F3
:10059000DFF8281C08600120DFF8241C0860002018
:1005A000DFF8201C08603A20DFF81C1C08700020CF
:1005B000DFF8181C08600120DFF8101C086001201B
:1005C000DFF8001C08600120DFF8F01B0860002045
:1005D000DFF8EC1B08600020DFF8E81B0860B220A1
:1005E000DFF8E41B08700020DFF8E01B0860012042
:1005F000DFF8D81B08600120DFF8C81B0860012065
:10060000DFF8B81B08600120DFF8B41B0860002089
:10061000DFF8B01B08600520DFF8AC1B0870002075
:10062000DFF8A81B08600120DFF8A01B086001208C
:10063000DFF8901B08600120DFF8801B08600120B4
:10064000DFF87C1B08600020DFF8781B08603A2088
:10065000DFF8741B08700020DFF8701B08600120B1
:10066000DFF8681B08600120DFF8581B08600120D4
:10067000DFF8481B08600120DFF8441B08600020F9
:10068000DFF8401B08603A20DFF83C1B08700020B0
:10069000DFF8381B08600120DFF8301B08600120FC
:1006A000DFF8201B08600120DFF8101B0860002025
:1006B000DFF80C1B08600020DFF8081B0860B3207F
:1006C000DFF8041B08700020DFF8001B0860012021
:1006D000DFF8F81A08600120DFF8E81A0860012046
:1006E000DFF8D81A08600120DFF8D41A086000206B
:1006F000DFF8D01A08600520DFF8CC1A0870002057
:10070000DFF8C81A08600120DFF8C01A086001206D
:10071000DFF8B01A08600120DFF8A01A0860012095
:10072000DFF89C1A08600020DFF8981A08603A2069
:10073000DFF8941A08700020DFF8901A0860012092
:10074000DFF8881A08600120DFF8781A08600120B5
:10075000DFF8681A08600120DFF8641A08600020DA
:10076000DFF8601A08603A20DFF85C1A0870002091
:10077000DFF8581A08600120DFF8501A08600120DD
:10078000DFF8401A08600120DFF8301A0860012005
:10079000DFF82C1A08600020DFF8281A086005200E
:1007A000DFF8241A08700020DFF8201A0860012002
:1007B000DFF8181A08600120DFF8081A0860012025
:1007C000DFF8F81908600120DFF8F419086000204C
:1007D000DFF8F01908603A20DFF8EC190870002003
:1007E000DFF8E81908600120DFF8E019086001204F
:1007F000DFF8D01908600120DFF8C0190860012077
:10080000DFF8BC1908600020DFF8B81908603A204A
:10081000DFF8B41908700020DFF8B0190860012073
:10082000DFF8A81908600120DFF898190860012096
:10083000DFF8881908600020DFF8841908600020BC
:10084000DFF880190860B420DFF87C1908700020F8
:10085000DFF8781908600120DFF8701908600120BE
:10086000DFF8601908600120DFF8501908600120E6
:10087000DFF84C1908600020DFF8481908600720ED
:10088000DFF8441908700020DFF8401908600120E3
:10089000DFF8381908600120DFF828190860012006
:1008A000DFF8181908600020DFF81419086000202C
:1008B000DFF810190860C020DFF80C19087000205C
:1008C000DFF8081908600120DFF80019086001202E
:1008D000DFF8F01808600120DFF8E0180860012058
:1008E000DFF8DC1808600020DFF8D818086028203E
:1008F000DFF8D41808700020DFF8D0180860012055
:10090000DFF8C81808600120DFF8B8180860012077
:10091000DFF8A81808600120DFF8A418086000209C
:10092000DFF8A01808600820DFF89C180870002085
:10093000DFF8981808600120DFF89018086001209F
:10094000DFF8801808600120DFF8701808600120C7
:10095000DFF86C1808600020DFF868180860842051
:10096000DFF8641808700020DFF8601808600120C4
:10097000DFF8581808600120DFF8481808600120E7
:10098000DFF8381808600020DFF83418086000200D
:10099000DFF830180860C120DFF82C18087000203C
:1009A000DFF8281808600120DFF82018086001200F
:1009B000DFF8101808600120DFF800180860012037
:1009C000DFF8FC1708600020DFF8F8170860C02087
:1009D000DFF8F41708700020DFF8F0170860012036
:1009E000DFF8E81708600120DFF8D8170860012059
:1009F000DFF8C81708600020DFF8C417086000207F
:100A0000DFF8C0170860C220DFF8BC1708700020AC
:100A1000DFF8B81708600120DFF8B0170860012080
:100A2000DFF8A01708600120DFF8901708600120A8
:100A3000DFF88C1708600020DFF8881708600C20AA
:100A4000DFF8841708700020DFF8801708600120A5
:100A5000DFF8781708600120DFF8681708600120C8
:100A6000DFF8581708600120DFF8541708600020ED
:100A7000DFF8501708600020DFF84C1708700020DE
:100A8000DFF8481708600120DFF8401708600120F0
:100A9000DFF8301708600120DFF820170860002019
:100AA000DFF81C1708600020DFF818170860C32063
:100AB000DFF8141708700020DFF810170860012015
:100AC000DFF8081708600120DFF8F8160860012039
:100AD000DFF8E81608600120DFF8E416086000205F
:100AE000DFF8E01608608C20DFF8DC1608700020C4
:100AF000DFF8D81608600120DFF8D0160860012062
:100B0000DFF8C01608600120DFF8B0160860012089
:100B1000DFF8AC1608600020DFF8A81608602A206D
:100B2000DFF8A41608700020DFF8A0160860012086
:100B3000DFF8981608600120DFF8881608600120A9
:100B4000DFF8781608600020DFF8741608600020CF
:100B5000DFF870160860C420DFF86C1608700020FB
:100B6000DFF8681608600120DFF8601608600120D1
:100B7000DFF8501608600120DFF8401608600120F9
:100B8000DFF83C1608600020DFF8381608608A207D
:100B9000DFF8341608700020DFF8301608600120F6
:100BA000DFF8281608600120DFF818160860012019
:100BB000DFF8081608600120DFF80416086000203E
:100BC000DFF800160860EE20DFF8FC150870002042
:100BD000DFF8F81508600120DFF8F0150860012043
:100BE000DFF8E01508600120DFF8D015086000206C
:100BF000DFF8CC1508600020DFF8C8150860C520B4
:100C0000DFF8C41508700020DFF8C0150860012067
:100C1000DFF8B81508600120DFF8A815086001208A
:100C2000DFF8981508600120DFF8941508600020AF
:100C3000DFF8901508600C20DFF88C150870002094
:100C4000DFF8881508600120DFF8801508600120B2
:100C5000DFF8701508600120DFF8601508600020DB
:100C6000DFF85C1508600020DFF858150860E02008
:100C7000DFF8541508700020DFF8501508600120D7
:100C8000DFF8481508600120DFF8381508600120FA
:100C9000DFF8281508600120DFF82415086000201F
:100CA000DFF8201508600520DFF81C15087000200B
:100CB000DFF8181508600120DFF810150860012022
:100CC000DFF8001508600120DFF8F014086001204B
:100CD000DFF8EC1408600020DFF8E81408601A2040
:100CE000DFF8E41408700020DFF8E0140860012049
:100CF000DFF8D81408600120DFF8C814086001206C
:100D0000DFF8B81408600120DFF8B4140860002090
:100D1000DFF8B01408600C20DFF8AC140870002075
:100D2000DFF8A81408600120DFF8A0140860012093
:100D3000DFF8901408600120DFF8801408600120BB
:100D4000DFF87C1408600020DFF8781408600E20BB
:100D5000DFF8741408700020DFF8701408600120B8
:100D6000DFF8681408600120DFF8581408600120DB
:100D7000DFF8481408600120DFF844140860002000
:100D8000DFF8401408603A20DFF83C1408700020B7
:100D9000DFF8381408600120DFF830140860012003
:100DA000DFF8201408600120DFF81014086001202B
:100DB000DFF80C1408600020DFF808140860342005
:100DC000DFF8041408700020DFF800140860012028
:100DD000DFF8F81308600120DFF8E813086001204D
:100DE000DFF8D81308600120DFF8D4130860002072
:100DF000DFF8D01308602D20DFF8CC130870002036
:100E0000DFF8C81308600120DFF8C0130860012074
:100E1000DFF8B01308600120DFF8A013086001209C
:100E2000DFF89C1308600020DFF8981308602F207B
:100E3000DFF8941308700020DFF890130860012099
:100E4000DFF8881308600120DFF8781308600120BC
:100E5000DFF8681308600120DFF8641308600020E1
:100E6000DFF8601308602D20DFF85C1308700020A5
:100E7000DFF8581308600120DFF8501308600120E4
:100E8000DFF8401308600120DFF83013086001200C
:100E9000DFF82C1308600020DFF8281308602A20F0
:100EA000DFF8241308700020DFF820130860012009
:100EB000DFF8181308600120DFF80813086001202C
:100EC000DFF8F81208600120DFF8F4120860002053
:100ED000DFF8F01208602F20BB4908700020BB49E2
:100EE00008600120B94908600120B6490860012066
:100EF000B24908600120B24908600020B149086089
:100F00003C20B14908700020B04908600120AF4979
:100F100008600120AB4908600120A8490860012051
:100F2000A74908600020A74908600020A64908706A
:100F30000020A64908600120A44908600120A149B9
:100F4000086001209D49086001209D49086000203B
:100F50009C49086001209C49087000209B4908605A
:100F600001209A49086001209649086001209349B0
:100F70000860012092490860002092490860022020
:100F80009149087000209149086001208F4908604C
:100F900001208C49086001208849086001208849A7
:100FA00008600020874908601020874908700020E9
:100FB0008649086001208549086001208149086050
:100FC00001207E49086000207D49086000207D499D
:100FD0000860E1207C49087000207C4908600120FD
:100FE0007A49086001207749086001207349086048
:100FF000012073490860002072490860042072498A
:1010000008700020714908600120704908600120C3
:101010006C4908600120694908600120684908603E
:101020000020684908601B20674908700020674954
:1010300008600120654908600120624908600120BC
:101040005E49086001205E49086000205D49086033
:101050000D205D49087000205C49086001205B4953
:1010600008600120574908600120544908600120A8
:10107000534908600020534908600E205249087007
:1010800000205249086001205049086001204D4964
:101090000860012049490860012049490860002092
:1010A000484908602D2048490870002047490860D9
:1010B00001204649086001204249086001203F495B
:1010C000086001203E49086000203E490860292050
:1010D0003D49087000203D49086001203B490860F7
:1010E0000120384908600120344908600120344952
:1010F000086000203349086024203349087000202C
:101100003249086001203149086001202D490860FA
:1011100001202A4908600120294908600020294946
:10112000086029202849087000202849086001200B
:101130002649086001202349086001201F490860F2
:1011400001201F49086000201E49086028201E4910
:10115000087000201D49086001201C49086001201A
:1011600018490860012015490860012014490860E9
:1011700000201449086026201349087000201349F4
:10118000086001201149086001200E490860012013
:101190000A49086001200A490860002009490860DE
:1011A00031200949087000200849086001200749DA
:1011B0000860012003490BE03410FE432810FE4371
:1011C0003010FE432C10FE4380F00F402410FE43ED
:1011D00008600120DFF80C1C08600120DFF8081C03
:1011E00008600020DFF8041C08603B20DFF8001CCA
:1011F00008700020DFF8FC1B08600120DFF8F41BFA
:1012000008600120DFF8E41B08600120DFF8D41B30
:1012100008600120DFF8D01B08600020DFF8CC1B3D
:1012200008600020DFF8C81B08700020DFF8C41B2E
:1012300008600120DFF8BC1B08600120DFF8AC1B50
:1012400008600120DFF89C1B08600120DFF8981B74
:1012500008600020DFF8941B08600020DFF8901B76
:1012600008700020DFF88C1B08600120DFF8841B69
:1012700008600120DFF8741B08600120DFF8641BA0
:1012800008600120DFF8601B08600020DFF85C1BAD
:1012900008600320DFF8581B08700020DFF8541B9B
:1012A00008600120DFF84C1B08600120DFF83C1BC0
:1012B00008600120DFF82C1B08600120DFF8281BE4
:1012C00008600020DFF8241B08601220DFF8201BD4
:1012D00008700020DFF81C1B08600120DFF8141BD9
:1012E00008600120DFF8041B08600120DFF8F41A11
:1012F00008600020DFF8F01A08600020DFF8EC1A20
:1013000008603A20DFF8E81A08700020DFF8E41AD5
:1013100008600120DFF8DC1A08600120DFF8CC1A31
:1013200008600120DFF8BC1A08600120DFF8B81A55
:1013300008600020DFF8B41A08600520DFF8B01A52
:1013400008700020DFF8AC1A08600120DFF8A41A4A
:1013500008600120DFF8941A08600120DFF8841A81
:1013600008600020DFF8801A08600020DFF87C1A8F
:1013700008602920DFF8781A08700020DFF8741A56
:1013800008600120DFF86C1A08600120DFF85C1AA1
:1013900008600120DFF84C1A08600020DFF8481AC6
:1013A00008600020DFF8441A08602C20DFF8401A9B
:1013B00008700020DFF83C1A08600120DFF8341ABA
:1013C00008600120DFF8241A0860DFF8540C007868
:1013D00000F001F810BD10B50400E4B2042C04DBE9
:1013E000C821DFF8400C00F08EFFDFF8340C0470E9
:1013F000E4B2002C09D0022C00F0B982C0F05E816A
:10140000032C00F0EA8300F0EBBC0120DFF8D419D4
:1014100008600020DFF8D01908600020DFF8CC1940
:1014200008603620DFF8C81908700020DFF8C419FA
:1014300008600120DFF8BC1908600120DFF8AC1952
:1014400008600120DFF89C1908600120DFF8981976
:1014500008600020DFF894190860C820DFF89019B0
:1014600008700020DFF88C1908600120DFF884196B
:1014700008600120DFF8741908600120DFF86419A2
:1014800008600020DFF8601908600020DFF85C19B0
:1014900008602A20DFF8581908700020DFF8541976
:1014A00008600120DFF84C1908600120DFF83C19C2
:1014B00008600120DFF82C1908600120DFF82819E6
:1014C00008600020DFF8241908600020DFF82019E8
:1014D00008700020DFF81C1908600120DFF81419DB
:1014E00008600120DFF8041908600120DFF8F41813
:1014F00008600120DFF8F01808600020DFF8EC1821
:1015000008600220DFF8E81808700020DFF8E4180F
:1015100008600120DFF8DC1808600120DFF8CC1833
:1015200008600120DFF8BC1808600120DFF8B81857
:1015300008600020DFF8B41808600020DFF8B01859
:1015400008700020DFF8AC1808600120DFF8A4184C
:1015500008600120DFF8941808600120DFF8841883
:1015600008600120DFF8801808600020DFF87C1890
:1015700008608120DFF8781808700020DFF8741800
:1015800008600120DFF86C1808600120DFF85C18A3
:1015900008600120DFF84C1808600020DFF84818C8
:1015A00008600020DFF8441808602B20DFF840189E
:1015B00008700020DFF83C1808600120DFF83418BC
:1015C00008600120DFF8241808600120DFF81418F3
:1015D00008600120DFF8101808600020DFF80C1800
:1015E00008600020DFF8081808700020DFF80418F1
:1015F00008600120DFF8FC1708600120DFF8EC1715
:1016000008600120DFF8DC1708600120DFF8D81738
:1016100008600020DFF8D41708600320DFF8D01737
:1016200008700020DFF8CC1708600120DFF8C4172D
:1016300008600120DFF8B41708600120DFF8A41764
:1016400008600120DFF8A01708600020DFF89C1771
:1016500008600020DFF8981708700020DFF8941762
:1016600008600120DFF88C1708600120DFF87C1784
:1016700008600120DFF86C1708600120DFF86817A8
:1016800008600020DFF8641708608220DFF8601728
:1016900008700020DFF85C1708600120DFF854179D
:1016A00008600120DFF8441708608020DFF878190F
:1016B00008808020DFF87419088091E30120DFF8AA
:1016C000241708600020DFF8201708600020DFF8EA
:1016D0001C1708603620DFF8181708700020DFF8A4
:1016E000141708600120DFF80C1708600120DFF8EC
:1016F000FC1608600120DFF8EC1608600120DFF816
:10170000E81608600020DFF8E4160860A820DFF87B
:10171000E01608700020DFF8DC1608600120DFF812
:10172000D41608600120DFF8C41608600120DFF835
:10173000B41608600020DFF8B01608600020DFF85B
:10174000AC1608602A20DFF8A81608700020DFF821
:10175000A41608600120DFF89C1608600120DFF85D
:101760008C1608600120DFF87C1608600120DFF885
:10177000781608600020DFF8741608600020DFF893
:10178000701608700020DFF86C1608600120DFF882
:10179000641608600120DFF8541608600120DFF8A5
:1017A000441608600120DFF8401608600020DFF8CA
:1017B0003C1608600320DFF8381608700020DFF8B8
:1017C000341608600120DFF82C1608600120DFF8CD
:1017D0001C1608600120DFF80C1608600120DFF8F5
:1017E000081608600020DFF8041608600020DFF803
:1017F000001608700020DFF8FC1508600120DFF8F3
:10180000F41508600120DFF8E41508600120DFF816
:10181000D41508600120DFF8D01508600020DFF83B
:10182000CC1508608220DFF8C81508700020DFF8AA
:10183000C41508600120DFF8BC1508600120DFF83E
:10184000AC1508600120DFF89C1508600020DFF867
:10185000981508600020DFF8941508602B20DFF849
:10186000901508700020DFF88C1508600120DFF863
:10187000841508600120DFF8741508600120DFF886
:10188000641508600120DFF8601508600020DFF8AB
:101890005C1508600020DFF8581508700020DFF89C
:1018A000541508600120DFF84C1508600120DFF8AE
:1018B0003C1508600120DFF82C1508600120DFF8D6
:1018C000281508600020DFF8241508600220DFF8E2
:1018D000201508700020DFF81C1508600120DFF8D3
:1018E000141508600120DFF8041508600120DFF8F6
:1018F000F41408600120DFF8F01408600020DFF81D
:10190000EC1408600020DFF8E81408700020DFF80D
:10191000E41408600120DFF8DC1408600120DFF81F
:10192000CC1408600120DFF8BC1408600120DFF847
:10193000B81408600020DFF8B41408608120DFF8D4
:10194000B01408700020DFF8AC1408600120DFF844
:10195000A41408600120DFF8941408608020DFF8E8
:10196000C81608808020DFF8C416088038E20120FD
:10197000DFF8701408600020DFF86C1408600020A5
:10198000DFF8681408603620DFF86414087000205F
:10199000DFF8601408600120DFF8581408600120A7
:1019A000DFF8481408600120DFF8381408600120CF
:1019B000DFF8341408600020DFF8301408600820D5
:1019C000DFF82C1408700020DFF8281408600120CC
:1019D000DFF8201408600120DFF8101408600120EF
:1019E000DFF8001408600020DFF8FC130860002016
:1019F000DFF8F81308602A20DFF8F41308700020DD
:101A0000DFF8F01308600120DFF8E8130860012018
:101A1000DFF8D81308600120DFF8C8130860012040
:101A2000DFF8C41308600020DFF8C013086000204E
:101A3000DFF8BC1308700020DFF8B813086001203D
:101A4000DFF8B01308600120DFF8A0130860012060
:101A5000DFF8901308600120DFF88C130860002085
:101A6000DFF8881308600220DFF884130870002074
:101A7000DFF8801308600120DFF878130860012088
:101A8000DFF8681308600120DFF8581308600120B0
:101A9000DFF8541308600020DFF8501308600020BE
:101AA000DFF84C1308700020DFF8481308600120AD
:101AB000DFF8401308600120DFF8301308600120D0
:101AC000DFF8201308600120DFF81C1308600020F5
:101AD000DFF8181308608120DFF814130870002065
:101AE000DFF8101308600120DFF8081308600120F8
:101AF000DFF8F81208600120BA4908600020BA49EE
:101B000008600020B94908602B20B94908700020FE
:101B1000B84908600120B74908600120B34908604E
:101B20000120B04908600120AF4908600020AF499A
:101B300008600020AE4908700020AE49086001200E
:101B4000AC4908600120A94908600120A549086046
:101B50000120A54908600020A44908600320A44989
:101B600008700020A34908600120A24908600120F4
:101B70009E49086001209B49086001209A4908603D
:101B800000209A490860002099490870002099496E
:101B900008600120974908600120944908600120ED
:101BA0009049086001209049086000208F49086032
:101BB00082208F49087000208E49086001208D49DD
:101BC00008600120894908608020DFF85C140880E3
:101BD0008020DFF85814088002E101208149086064
:101BE0000020814908600020804908603620804933
:101BF000087000207F49086001207E4908600120AC
:101C00007A49086001207749086001207649086018
:101C100000207649086068207549087000207549E1
:101C200008600120734908600120704908600120A4
:101C30006C49086000206C49086000206B4908600E
:101C40002A206B49087000206A4908600120694910
:101C50000860012065490860012062490860012090
:101C600061490860002061490860002060490870EF
:101C700000206049086001205E49086001205B493E
:101C8000086001205749086001205749086000207A
:101C900056490860032056490870002055490860DD
:101CA00001205449086001205049086001204D4935
:101CB000086001204C49086000204C490860002061
:101CC0004B49087000204B490860012049490860D1
:101CD000012046490860012042490860012042492C
:101CE00008600020414908608220414908700020B6
:101CF0004049086001203F49086001203B490860D5
:101D00000120384908600020374908600020374921
:101D100008602B20364908700020364908600120F1
:101D20003449086001203149086001202D490860CC
:101D300001202D49086000202C49086000202C4912
:101D4000087000202B49086001202A490860012002
:101D500026490860012023490860012022490860C3
:101D600000202249086002202149087000202149F2
:101D7000086001201F49086001201C4908600120FB
:101D800018490860012018490860002017490860B8
:101D900000201749087000201649086001201549E5
:101DA000086001201149086001200E4908600120E7
:101DB0000D49086000200D49086081200C49087019
:101DC00000200C49086001200A49086001200749E9
:101DD0000860802094490880802094490880FFE7AB
:101DE00010BD00002810FE433010FE432C10FE43AF
:101DF00080F00F402410FE4303B489480078C007E8
:101E00000AD5BDF80000C01CADF80000BDF8020006
:101E1000801CADF8020009E0BDF80000801CADF8A0
:101E20000000BDF80200C01CADF80200012080498E
:101E3000086000207F49086000207F4908602A2050
:101E40007E49087000207E49086001207C490860B6
:101E50000120794908600120754908600120754911
:101E60000860002074490860BDF8000080B2000AD4
:101E700072490870002072490860012070490860AA
:101E800001206D4908600120694908600120694905
:101E90000860002068490860BDF8000067490870C4
:101EA00000206749086001206549086001206249F7
:101EB000086001205E49086001205E49086000203A
:101EC0005D490860BDF80000BDF8041011FA80F00B
:101ED000401E00125949087000205949086001202D
:101EE00057490860012054490860012050490860A2
:101EF00001205049086000204F490860BDF80000EB
:101F0000BDF804100818401E4C49087000204C49C8
:101F1000086001204A490860012047490860012003
:101F20004349086000204349086000204249086096
:101F30002B20424908700020414908600120404997
:101F4000086001203C4908600120394908600120EF
:101F500038490860002038490860BDF8020080B2A6
:101F6000000A3649087000203549086001203449CC
:101F7000086001203049086001202D4908600120D7
:101F80002C49086000202C490860BDF802002B494C
:101F9000087000202A4908600120294908600120B2
:101FA0002549086001202249086001202149086074
:101FB000002021490860BDF80200BDF8061011FAA2
:101FC00080F0401E00121D49087000201C49086066
:101FD00001201B49086001201749086001201449AD
:101FE0000860012013490860002013490860BDF80B
:101FF0000200BDF806100818401E104908700020A5
:102000000F49086001200E49086001200A49086054
:1020100002B0704704480088704704480088704741
:10202000385AFF1F30D30000C810FF1FCA10FF1F0F
:102030002810FE433010FE432C10FE4380F00F406A
:102040002410FE4370B504000D0016004FF480719B
:102050002000C0B200F0B8F86DB2002D11D1584880
:10206000E4B2611150F821005549E4B2621151F80F
:1020700022104969012214F01F039A4091434161E3
:1020800036E04F48E4B2611150F821004C49E4B207
:10209000621151F822104969012214F01F039A407D
:1020A00011434161F6B2002E11D14548E4B26111ED
:1020B00050F821000068012114F01F02914088436C
:1020C0003F49E4B2621151F82210086010E03C4828
:1020D000E4B2611150F821000068012114F01F02E0
:1020E000914008433649E4B2621151F82210086069
:1020F00070BD10B4C9B2002911D1314AC0B2431128
:1021000052F823201268012310F01F04A3409A43C1
:102110002B4BC0B2441153F824301A6010E0284A07
:10212000C0B2431152F823201268012310F01F049B
:10213000A3401A43224BC0B2441153F824301A6012
:1021400010BC704710B504001D48E4B2611150F88E
:102150002100406914F01F010200CA40D00703D4D7
:102160007B21184800F0CFF81548E4B2611150F80F
:102170002100012114F01F029140C16010BD10B573
:1021800004000F48E4B2611150F82100406914F0D6
:102190001F010200CA40D00703D58C21094800F076
:1021A000B2F80748E4B2611150F82100006914F058
:1021B0001F010200CA4012F0010010BD0000000023
:1021C0005C0EFF1FE8D5000010B4294A12684FF4D6
:1021D0000073C0B24409A3401A43254B1A60254A34
:1021E000C0B2431152F82320012310F01F04A34072
:1021F000C2F8A0301F4AC0B2431152F82320C0B227
:1022000010F01F0342F8231010BC704710B4184A96
:1022100012684FF40073C0B24409A3401A43144B30
:102220001A60144AC0B2431152F82320012310F05F
:102230001F04A340C2F8A03031F4E0610D4AC0B2DF
:10224000431152F82320C0B210F01F0352F823208C
:1022500012F4E0621143074AC0B2431152F823203E
:10226000C0B210F01F0342F8231010BC70470000EA
:1022700038800440B80EFF1F10B50400002C15D0A4
:10228000B4F1807F03D329210F4800F03CF80020EF
:102290000E4908600E48046000200E4908600520C1
:1022A0000A49086009480068C003FBD510BD10B595
:1022B00004002000441E002804D007480068FFF7EF
:1022C000DBFFF6E710BD00003CD4000010E000E0AA
:1022D00014E000E018E000E08C4FFF1FDFF800F092
:1022E0006D13FF1FDFF800F09D13FF1FBFF34F8F2B
:1022F0004648006810F4E0604549084343490860D7
:10230000BFF34F8FFEE738B504000D00002000F04A
:102310008DF82A0021003F4800F0C0F8002000F0AE
:10232000A2F84FF47A70FFF7C2FFF2E738B5040065
:102330000D00210049B2032000F0CCF9200032BD8D
:1023400010B50024042000F0DFF9042000F012FA98
:10235000002841D1002000F069F8042000F00AFABA
:10236000012801D101200400002000F07CF82A4857
:1023700000F094F84FF4FA70FFF799FFE4B2012CE3
:10238000EBD1042000F0F6F90028E6D1042000F09B
:10239000F1F9002806D1002000F065F86420FFF76D
:1023A00086FFF3E7042000F0E5F9012806D10020BC
:1023B00000F059F83220FFF77AFFF3E7174800F0F2
:1023C0006DF8FFF78BFF6420FFF771FF0020FFF728
:1023D00089FFFFF78BFFC0E710BD10B510480468F8
:1023E000012000F023F8012000F03DF80D48E4B290
:1023F0000F2101FB0402E4B221000B4800F04EF86B
:102400004FF47A70FFF753FFEDE700000CED00E0AA
:102410000400FA056CD80000B8D90000E8D8000024
:1024200004ED00E04807FF1F08D8000010B50400C5
:1024300064B2042C07DA01220121174864B2205C3F
:10244000FFF700FE0EE0042004002000441E40B20E
:10245000002807D0012201210F4864B2205CFFF759
:10246000F1FDF2E710BD10B5040064B2042C05DAEA
:10247000094864B2205CFFF765FE0CE0042004000C
:102480002000441E40B2002805D0034864B2205CFE
:10249000FFF758FEF4E710BDCC10FF1F0EB400B5D7
:1024A00082B003A90091024600AB012103487844A1
:1024B0000A3000F039FA06BC5DF810FBD9B4000010
:1024C0002DE9F84304000D0064B2002C08D0022C62
:1024D0002CD018D3042C4FD03BD3052C5FD071E007
:1024E000DFF80C02006850F48060DFF80412086026
:1024F0004FF440716620FFF767FE4FF4407167208C
:10250000FFF762FE5EE0DFF8E801006850F400606B
:10251000DFF8DC1108604FF440714320FFF754FEF0
:102520004FF440714420FFF74FFE4BE0DFF8C0014D
:10253000006850F48050DFF8B81108604FF4407123
:102540006320FFF741FE4FF440716220FFF73CFE2D
:1025500038E0DFF89C01006850F40050DFF890117B
:1025600008604FF440715020FFF72EFE4FF4407189
:102570005120FFF729FE25E0DFF87801006850F4CC
:102580008060DFF8701108604FF440714E20FFF753
:102590001BFE4FF440714F20FFF716FE12E0DFF8EC
:1025A0005401006850F40060DFF8481108604FF4EF
:1025B00040718920FFF708FE4FF440718820FFF733
:1025C00003FEFFE7DFF8300164B250F82400C07862
:1025D00010F0F300DFF8201164B251F82410C87035
:1025E000DFF8140164B250F824008078DFF8081195
:1025F00064B251F82410887064B2002C02D064B226
:10260000012C07D1DFF8F40000684FF47A714843D9
:10261000814606E0DFF8E80000684FF47A7148432D
:1026200081462801B9FBF0F00600B6B2B6F5005FAE
:1026300002DB41F6FF700600B9FBF5F0B6B2B0EB75
:1026400006100700BFB2202F03DBDC212D48FFF767
:102650005AFE294864B250F82400007810F0E000D7
:102660008046C6F3042050EA0800234964B251F8BA
:1026700024100870204864B250F8240046701E48A8
:1026800064B250F82400807A10F0E000804617F021
:102690001F0050EA0800184964B251F824108872EB
:1026A000154864B250F82400007C50F088001249AC
:1026B00064B251F8241008740F4864B250F8240032
:1026C000C07850F00C000C4964B251F82410C87066
:1026D000BDE8F183084A40B252F820201279120670
:1026E000F8D5054A40B252F82020D1717047000059
:1026F0003480044028800440D80EFF1F8C4FFF1FF9
:10270000944FFF1FE4D6000010B5040064B2082CFB
:102710000DDA002200217E4864B2205CFFF792FCB3
:1027200003217B4864B2205CFFF770FD14E00820B1
:1027300004002000441E40B200280DD000220021D9
:10274000734864B2205CFFF77DFC0321704864B2DB
:10275000205CFFF75BFDECE710BD10B504006C4892
:1027600064B2205CFFF70BFD002801D1002000E0DF
:10277000012010BD10B50400200040B2FFF7EDFFAE
:1027800000280AD10A20FFF792FD200040B2FFF78F
:10279000E4FF002801D1002000E0012010BD01B4B9
:1027A0005C490978022929D09DF800105A4A5B4BF0
:1027B0001B7802F813109DF80110574A574B1B78ED
:1027C00012EB4302517055490978491C534A117064
:1027D00052490978142902DB0021504A11704F49EF
:1027E000097808004E490978C0B2884203D1022115
:1027F000484A117002E00121464A117001B0704749
:10280000010044480078002801D1002028E0424817
:10281000434B1B7810F8130008703F48404B1B785F
:1028200010EB4300407848703D480078401C3C4B1A
:1028300018703B480078142802DB0020384B1870D1
:1028400036480078020036480078D2B2904203D170
:102850000020304B187002E001202E4B1870012030
:10286000704710B582B00020040064B2082C4EDA24
:10287000200040B2FFF771FF002835D1294864B22B
:10288000205C401C274964B26054264864B2205C36
:1028900002283ADB234864B2205C022808D18DF874
:1028A000004000208DF801000098FFF778FF2CE031
:1028B0001C4864B2205C332827DB1A4864B2205CD1
:1028C00033280CD18DF8004002208DF801000098CB
:1028D000FFF765FF0220134964B2605415E002203F
:1028E000104964B2605410E00E4864B2205C0228C3
:1028F00007DB8DF8004001208DF801000098FFF7FC
:102900004EFF0020074964B26054641CADE713BD5C
:10291000C010FF1F375AFF1F984FFF1F365AFF1F67
:10292000355AFF1FC04FFF1F2DE9F04FA1B0804661
:10293000002017461D4602910B900DF1440A6FF0DE
:1029400000490AE017F8011B0298C04700280290CE
:1029500000F0A5820B98401C0B90387808B90B98B2
:102960009FE22528EED10020059006900790089060
:1029700009900A9001E040F0010017F8011F20299A
:10298000F9D023290DD02B2904D02D2906D03029A8
:102990000AD00CE040F0020080B2EEE740F0040004
:1029A000FAE740F00800F7E740F01000F4E72A29C2
:1029B0000ED12968296051F8042B2960002A0D9254
:1029C00004D5514240F004000D9180B27F1C11E00B
:1029D00000210D9109E00D99494505D001EB8103D6
:1029E00002EB430130390D917F1C3A78A2F130019E
:1029F0000A29F0D339782E2903D04FF0FF310C91FA
:102A00001DE017F8011F2A2907D1296829607F1CBA
:102A100051F8042B29600C9211E000210C9109E07F
:102A20000C99494505D001EB810302EB4301303994
:102A30000C917F1C3A78A2F130010A29F0D3ADF84D
:102A400038000FF6C020397800F06AFD08B117F899
:102A5000010B8DF83A009DF83A00682802BF3978DA
:102A60006829622005D06C2804BF38786C2803D10F
:102A700071208DF83A007F1C11A8049017F8014BC3
:102A8000B4F1250023D02038022840F2BB8013384F
:102A900000F0E0800B3800F04A81401E00F02381F6
:102AA000401E022840F2AE80001F00F01C81401F33
:102AB00079D0401E00F0CE80401E24D0C01E0BD026
:102AC000801E00F0C780C01E00F0C48039E12520C0
:102AD0008DF8440001203DE12868286050F8046B1F
:102AE000286003960C9C002C04D5304600F024FD91
:102AF000044606E022460021304600F039FD00B1D0
:102B0000841B069427E1296829603C2451F8040BB2
:102B100029600021CDE9000111A80390DDE9000141
:102B2000049E11B908B90C9AB2B10206120FA0EBBB
:102B300002123032D2B2631E3A2AA8BF27320009ED
:102B400040EA017009099A5508BF00281C4603D0C5
:102B5000039AA3199A42E8D3A0190390C4F13C0147
:102B60000C980691814209DA401A08904FF6EF71ED
:102B7000BDF838000840ADF83800ECE0002840F11E
:102B8000EA809DF8380000F01400102840F0E3803F
:102B90000D98059A801A089A801A441A012CC0F2DE
:102BA000DA800894D7E09DF83A0062281AD06828A5
:102BB00006D06A280CD06C281CD0712808D019E0E7
:102BC0002868286050F8041B28600B980880C2E031
:102BD0002868286050F8042B28600B98C117C2E9B8
:102BE0000001B8E02868286050F8041B28600B98A2
:102BF0000870B0E02868286050F8041B28600B9823
:102C00000860A8E02868C01D20F007022A60D2E909
:102C1000000108322A60CDE90001002902D505989B
:102C20002D210AE0BDF83800810702D505982B2137
:102C300003E0C00705D50598202100F80A10401CC4
:102C4000059011A8059908180390214600A800F0E6
:102C5000E5F980E09DF83A006C280DD0712818BF86
:102C60006A2809D12868C01D20F007022A60D2E92D
:102C7000000108322A6005E02968296051F8040B38
:102C800029600021CDE900019DF83A00682803D1B0
:102C9000DDE9000180B20BE0622803D1DDE900012B
:102CA000C0B205E0742818BF7A2804D1DDE900011C
:102CB0000021CDE900019DF8380000072ED5DDE99F
:102CC0000001002908BF002828D044F020007828FF
:102CD00024D10598302100F80A10401C411C0591B0
:102CE00000F80A401AE09DF83A00294600F0DCF8A6
:102CF000CDE90001002902DA05982D210AE0BDF88E
:102D00003800810702D505982B2103E0C00705D5BF
:102D10000598202100F80A10401C059011A805997B
:102D200008180390214600A800F0F5F813E00120F0
:102D300005902868286050F8041B28608DF844101E
:102D400009E025208DF84400012005901CB18AF887
:102D50000140022005900D980599401A0899401AE3
:102D60000699401A0999401A0799401A0A99441A73
:102D70009DF83800400710D420208DF84000002630
:102D800009E0012310AA00A9404600F0A3FB002897
:102D900040F08580761CA642F3DB059E0DF1440BC6
:102DA0000AE01BF8011B0298C0470028029076D069
:102DB0000B98401C0B90761E002EF2D130208DF81F
:102DC00040004FF0000B089E09E0012310AA00A963
:102DD000404600F07FFB002861D10BF1010BB345A9
:102DE000F3DB069EDDF80CB00AE01BF8011B02982D
:102DF000C0470028029052D00B98401C0B90761EC2
:102E0000002EF2D130208DF840004FF0000B099ECB
:102E100009E0012310AA00A9404600F05BFB00284E
:102E20003DD10BF1010BB345F3DB03980699079EE7
:102E300001EB000B09E01BF8011B0298C047029050
:102E400068B30B98401C0B90761E002EF3D13020F7
:102E50008DF840004FF0000B0A9E08E0012310AAF5
:102E600000A9404600F036FBC8B90BF1010BB34591
:102E7000F4DB9DF8380040077FF56FAD20208DF81A
:102E80004000002600E0761CA642BFF666AD012396
:102E900010AA00A9404600F01DFB0028F3D04FF017
:102EA000FF3021B0BDE8F08F622826D068281DD001
:102EB0006A2808D06C2827D0712804D0742823D021
:102EC0007A280CD020E00868C01D20F007000860B8
:102ED000D0E90023083008601946104670470A6898
:102EE0000A6052F8040B0A60002170470A680A6001
:102EF00052F8040B0A6000B20BE00A680A6052F84C
:102F0000040B0A6040B204E00A680A6052F8040B3D
:102F10000A60C11770472DE9FA4E05460A462F6927
:102F20006F2A08BF082405D041F02000782814BF7C
:102F30000A2410243C26D5E90001642A18BF692A16
:102F400081468A4605D1002903DAD9F100096AEBE6
:102F50004A0ABAF1000F08BFB9F1000F0CD1286B73
:102F600050B9082C36D195F83800000732D53020FA
:102F70003B2687F83B002DE0E317484651462246A2
:102F800000F022FBA4FB0023A9EB02023032D2B2F4
:102F9000A6F1010B3A2A5E4603DB9DF80030513B57
:102FA0009A1881465FEA010A0BF8072008BFB9F1B9
:102FB000000F03D0E868F1198842DDD3082C09D14D
:102FC00095F83800000705D5F05D302802D0761E50
:102FD0003020F055C6F13C00A861F119E960296B79
:102FE000884208DA081A28624FF6EF71288F0840E5
:102FF0002887BDE8F38E00290ED595F8381001F02A
:103000001401102908D1696B6A69891A2A6A891A18
:103010000E1A012EA8BF2E62BDE8F38E2DE9F34FE4
:103020008BB0D0E90089006B002801AF48BF0620B3
:1030300005D404BF41F02000672802D101200B997C
:10304000086340F2FF720B984168C1F30A50904246
:1030500020D1080302BF0B98006800280AD10B9901
:10306000032088619DF8300061381A2858D30FF288
:10307000A84109E00B99032088619DF83000613870
:103080001A284AD30FF288410B98C068032200F037
:1030900013FB00E1012807DA0B9800F048FB012838
:1030A00002DB00230026EDE00B9ADFF854B15268F2
:1030B00040F2FE3161F31E520B994A6040F2FE313C
:1030C000461A404649460022002300F051FB38BF13
:1030D00089F0004936B247F297507043494990FB56
:1030E000F1F636B2C6F10707012F92461BDBF8074F
:1030F00007D552465B464046494600F051FB8046A4
:1031000089465046594652465B467F1000F048FBC0
:10311000002F82468B46EAD126E00FF2F031B3E76A
:103120000FF2F031B0E77F420024374D12E0F8078C
:1031300007D552465B462046294600F031FB04463F
:103140000D465046594652465B4600F029FB7F101B
:1031500082468B46002FEAD14046494622462B46FE
:1031600000F0F0FB804689469DF830000B99DFF8AF
:103170009CB0096B40F02005662D0CBF06F10A00DB
:1031800006204718142FA8BF132730208DF80400FD
:103190000DF10504012F3BDB4046494600F0FEFCE3
:1031A000014604F1080204234FF00A0CB1FBFCFCB9
:1031B0000CEB8C04A1EB4401303102F8011C0A2114
:1031C000BCFBF1FE0EEB8E04ACEB440430345B1E12
:1031D000714602F8024DE7D1083F012F02F10804C1
:1031E000D8DB00F0FBFC02460B464046494600F0A7
:1031F00003FD00225B4600F0D3FA80468946CBE708
:1032000000002440A08601000000F03F84D79741D1
:103210000DF10500201A0DF1050702E0401E761E93
:103220007F1C39783029F9D0662D02D136B2711C55
:1032300003E0652D0CBF012100210B9A126B8B1846
:103240001BB29842B8BF03461BB219001AD4814280
:1032500004DAC85D3528A8BF392000DA3020CA1941
:10326000521E00E05B1E12F80159491E8542F9D03A
:10327000392802D1C85D401CC855002902D57F1EDF
:103280005B1C761C36B29DF830100B9800961BB272
:103290003A4600F003F80DB0BDE8F08F2DE9F04795
:1032A00086B006468A4690461D4600F082FD012DF6
:1032B000406A376B90F8009002DA01250FF25C2823
:1032C0004AF02000BDF93840662808BF641C13D0BE
:1032D000672840F0888014F1040F73DBBC4271DA78
:1032E00096F83800641C000702D4BD42B8BF2F46D0
:1032F00024B23F1B48BF002724B2F068B169012CFB
:1033000021DA4A1C30230B54012F03DA96F83810C7
:10331000090702D502F80090521CE742B8BF7C4270
:1033200024B2E7196142AF42B2617162B8BF3D4653
:10333000B3692DB2F5612A464146181800F0BCF970
:10334000781BB062AFE00818A54216DA2A4641465B
:1033500000F0B2F9B1696918601B012FB1617062A8
:1033600003DA96F83800000705D5F06801F80090F8
:10337000F069401CF061B76295E02246414600F0DA
:103380009BF9B06920182D1B012F03DA96F838102D
:10339000090703D5F16800F80190401CB0612DB217
:1033A000AF42B8BF3D46F068B3692DB22A4604EB80
:1033B0000801181800F080F9B0692818B061781B6E
:1033C000706270E0BD4204DA96F83810090758BF01
:1033D0002F467F1E48BF0027BAF1670F0CBF4FF082
:1033E000650A4FF0450AB169F06818F8013B0B54C3
:1033F0004A1C012F05DA96F83810090758BFB26148
:1034000015D502F80090531C012FB3610FDB6D1E20
:103410002DB2AF42B8BF3D462DB22A4641461818DC
:1034200000F04AF9B0692818B061781B7062F06842
:10343000B1690918200081F800A004D42B2048703D
:1034400001F1020804E02D224A7001F102086442F1
:10345000002502AF08E00A2200A800F0C3FC019892
:1034600007F8010B6D1C009C21B20129F3DA022D33
:1034700006DA4AF02000652804BF302008F8010B66
:103480004DB9302008F8010B07E06D1E02A8285C3A
:10349000303008F8010B012DF7DAF068B16908182F
:1034A000A8EB0000F06196F8380000F01400102836
:1034B0000DD17069B1690818716A0818F1690818A6
:1034C000B16A0818716B8842BCBF081A306206B036
:1034D000BDE8F087F8B504460D4616461F460020A5
:1034E00004E0E86A401CE8627F1E002047B116F83D
:1034F000011BA868A0470028A860F2D14FF0FF3058
:10350000F2BD0000686A6C747A4C00006E616E0057
:103510004E414E00696E6600494E46003000010083
:103520000278C9B28A421AB11CBF10F8012FF9E71C
:1035300018BF00207047000000F10103810704D08C
:1035400010F8011B89B18107FAD10268B2F101318B
:10355000914311F0803F04BF50F8042FF6E710F8B4
:10356000011B11B110F8011BFBE7C01A70470000E6
:10357000C9B2830706D0521E22D310F8013B9942EC
:10358000F7D11FE0083A13D302F1040241EA012106
:1035900041EA014150F8043B121F21BF4B40A3F107
:1035A000013C2CEA030C1CF0803FF3D0C9B2001F91
:1035B000083210F8013B521E28BF91EA030FF8D8D9
:1035C00018BF0120401E70471B4213D1094236D15B
:1035D0002AB18446B0FBF2F002FB10C2704700F043
:1035E00009BCFCD30022002370470B00020000211D
:1035F00000207047904271EB030CF6D370B5B1FA1E
:1036000081F4B3FA83F52C1BA340C4F1200532FAF0
:1036100005F63343A2405FF00046E64002E05B0857
:103620005FEA3202841A71EB030524BF2046294663
:103630007641F4D302000B003000002170BD012A56
:10364000CFD970B5140C20D0B1FA81F4B2FA82F55A
:10365000C4F120046419B4F12006D6D3B2405FF05F
:103660000044F440002502E052085FEA3303C61A22
:1036700071EB020E24BF3046714664416D41F3D3B5
:1036800002000B002000290070BD0C46B1FBF2F1D6
:1036900002FB11452D0445EA1045B5FBF2F402FB8F
:1036A000145580B240EA0545B5FBF2F002FB10521A
:1036B00040EA044070BD000062B38B0708D0521E80
:1036C00011F8013B00F8013B00F024808B07F6D194
:1036D000830740F0208000BF103A07D330B4B1E830
:1036E0003810103AA0E83810F9D230BC530724BF84
:1036F000B1E80810A0E8081044BF51F8043B40F8B6
:10370000043BD20724BF31F8022B20F8022B44BF20
:103710000B7803707047083A07D3B1E80810083AED
:1037200040F8043B40F804CBF7D25307E4E730B449
:10373000436803F0004201211B031B0B436004BFDD
:103740000368002B08D10DE00368DD0F45EA44044F
:1037500044605B000360491E4468E302F4D5230320
:103760001B0B436043681A434260084630BC7047F5
:103770004FF4001C1CEB410F94BF1CEB430F09E0FE
:1037800041EA030C50EA4C0C52EA0C0C03D2994269
:1037900008BF9042704714BF8B42824270470000BE
:1037A000B0B581EA030C0CF0004C40F2FF7515EA4D
:1037B00011541DBF15EA1357AC42AF4239E0E4196A
:1037C00023EA455343F48013C90241F0004141EA22
:1037D000505EC7021100A7FB020200284FF0000054
:1037E000EEFB01204FF00001E3FB072118BF42F080
:1037F0000102401800214941E3FB0E01A4F5806459
:103800000F0302D252004041494154F101046CDDE2
:10381000470872F1004250F1000051EB0451A1F54C
:1038200080115CBF41EA0C01B0BD4CEA055100209B
:10383000B0BD05EA1357AC4214BFAF4241E050EAB5
:10384000410E1CBF52EA430E02E061460020B0BDAB
:1038500024423C441BD15FEA070EF6D0090302BFA5
:1038600001460020AEF1140EB1FA81F7AEEB070469
:1038700001FA07FE0C37C7F1200100FA07F7C8402C
:103880004EEA000E23EA455343F48013A2E733F0D7
:103890000043B3FA83F704BFB2FA82FE77440B3FCA
:1038A000E41BB7F1200E2FBF02FA0EF3BB40C7F1A5
:1038B000200E22FA0EFE38BF43EA0E03BA40641C03
:1038C00082E750EA410E14BF52EA430E6FF0000146
:1038D0004FF4001717EB430F8ABF194617EB410F40
:1038E000B5E74CEA05510020B0BDD4F10104B4F1B4
:1038F00020070FDAC4F12007520828BF42F0010266
:1039000010FA07F501FA07F7E1BF2A43E040384310
:10391000E1400FE0352C98DCC7F1200452EA400268
:1039200020FA07F218BF42F0010231FA07F0A14075
:103930000A43002172F1004250F1000051EB0C01EA
:10394000B0BD00002DE9F04140F2FF7581EA030CA3
:103950000CF0004C15EA11541DBF15EA1357AC4288
:10396000AF42E9E0BC41C1F31301C3F31303801A72
:10397000994143F4801304D2641E400049418018E9
:103980005941C90241EA5051B1FBF3F603FB16114C
:10399000A2FB0675D7EBC020A94102D2761E801883
:1039A0005941C90241EA5051B1FBF3FE03FB1E111C
:1039B000A2FB0E75D7EBC020A94103D2AEF1010ED8
:1039C00080185941890241EA9051760546EA8E2EC7
:1039D000B1FBF3F603FB1611A2FB0675D7EB8020B3
:1039E000A94102D2761E80185941C90241EA5051BC
:1039F0004EEA060EB1FBF3F603FB1611A2FB0675A9
:103A0000D7EBC020A94102D2761E80185941C902C5
:103A100041EA5051B1FBF3F703FB1711A2FB073545
:103A2000D3EBC020A94167F100070CBF004247F06B
:103A3000010766F3D5274FEA1E31B80814F58064F4
:103A400014DDBD0775F1004250EB0E5051EB0451EF
:103A500011F5801F5CBF41EA0C01BDE8F0814CF01C
:103A60007F6141F0E0410020BDE8F081BD076D08B5
:103A700040EA0E5041F48011D4F10104B4F1200663
:103A80000ADAC4F120060200E04001FA06F3E14040
:103A90001843B24015430EE0342C14DCC6F1200468
:103AA00045EA40056D0820FA06F2154321FA06F0B2
:103AB000A1400D43002175F1004250F1000051EB8F
:103AC0000C01BDE8F08100205FEA0C01BDE8F08147
:103AD000CFB992185B41B3FA83F704BFB2FA82F60A
:103AE000BF190B3FB7F120062FBF02FA06F3BB4008
:103AF000C7F1200622FA06F638BF3343BA401CB19C
:103B0000E419641E2FE77F4231F00041B1FA81F4DD
:103B100004BFB0FA80F6A4190B3CB4F120062FBF05
:103B200000FA06F1A140C4F1200620FA06F638BFDB
:103B30003143A0403C1B16E7AC421ABF05EA1357BD
:103B4000AF4214E050EA41061CBF52EA4306BFE709
:103B500050EA4107304661461CBF41EA0551BDE8C5
:103B6000F08152EA430C08BFC143BDE8F081002058
:103B70004FF4001616EB410F98BF16EB430F08BF2A
:103B800016EB410F24BFC14305E016EB430F0CBFFA
:103B900061464CEA0551BDE8F0810000400D40EA65
:103BA000C120490080F00D8040F00040490DA1F592
:103BB0008061491C05D4D1F11F0154BFC840C01712
:103BC00070474FF000007047010040F10980F44653
:103BD000404200F005F851F000416047010000BF8D
:103BE00009D0B0FA80F18840C91CC1F5846109058B
:103BF00001EBD02140057047F0B44FF0004591EA49
:103C0000030F44BF6B4000F0F7B800BF841A71EB9C
:103C1000030604D26E40001BB141121973414FF4E8
:103C2000001C1CEB410F34BF7CEB430684E00C0D01
:103C3000A4EB1356362E7DDC012E43DC45EAC3236C
:103C400043EA525312BFD20292025B08240545EAAE
:103C5000C12141EA5051D2EBC020994125D407D16E
:103C6000B0FA80F610FA06F164D00020203608E0A1
:103C7000B1FA81F6B140C6F1200220FA02F21143F6
:103C8000B0404FEAF474B4EB465434F001064FEA06
:103C900074040AD8D6F50016760D04F00044F040FE
:103CA00061FA06F25040F1404840C00A40EA4150F3
:103CB00021F0004128BF5FEA500550F1000044EBBD
:103CC000D12137E045EAC323DB0A45EAC121C90A0D
:103CD000B6F120050EDD42EA0242120CC5F12006C3
:103CE00003FA06F6EB4042EA06056D42984161F19F
:103CF00000010DE062FA06F5F240554063FA06FC59
:103D000082EA0C02F3405A406D42904161EB03019C
:103D100011F4801F05D1641E620502D06D00404180
:103D2000494121F48011430875F1004350F100002E
:103D300041EB0451F0BC70471CEB410F15D223F04E
:103D4000004352EA43060BD04FEA4C0CBCEB410F48
:103D500004D80C0D661E342EB7DDEBE7801A9941AE
:103D600050EA410608BF0021E4E708BF1CEB430FFF
:103D700028BF6FF00001DDE780B5134800F0A6F81A
:103D80000FF24C020FF244010160426241600FF2F7
:103D90004402826381600FF24402C16001614161AB
:103DA00081618162C16201634163C26301644164F4
:103DB00001BD10B5044800F089F80446206808B930
:103DC000FFF7DAFF204610BD405AFF1F0000000039
:103DD0002E00000066616C736500000074727565EA
:103DE0000000000091FBF2F303FB1211C0E9003167
:103DF0007047000070470000841A71EB030603D27D
:103E0000001BB141121973414FF4001C1CEB410F10
:103E100034BF7CEB430443E00C0DA4EB1356352E6A
:103E200050DC45EAC323DB0A45EAC121C912B6F1D9
:103E300020050DDD63FA05F6EB4086EA0305124224
:103E400018BF45F00105C01851F100010CD213E074
:103E500062FA06F5F2405540F3415A40B340F34050
:103E60005A408018594107D349085FEA30005FEA99
:103E7000350528BF45F0010501F58011420875F1AF
:103E8000004250F1000041EB0451F0BC4FF4001C23
:103E90001CEB410F38BF70470020090D0905704722
:103EA0001CEB410F10D252EA43060BD0BCEB410F82
:103EB00005D80C0DAB43661E342EB5DD02E0AB43D6
:103EC00080185941F0BC7047F0BC70477047000043
:103ED00080B541F65A6350220021012001F08CFB8D
:103EE00001BD00002DE9F047DFF8540D00680828F7
:103EF00009DADFF8500D0068082804DADFF8480D09
:103F00000068082805DBDFF8440D0068DFF8401D75
:103F10000860DFF8340D0068DFF8241D0968884266
:103F20000ADADFF8200D0068DFF8141D09688842FE
:103F300002DA0020040014E0DFF80C0D0068DFF85E
:103F4000041D096888420ADADFF8F40C0068DFF81B
:103F5000F41C0968884202DA0220040001E0012012
:103F6000040032250020DFF8EC1C0860002C5BD137
:103F7000DFF8D40C0068A8422DDADFF8C40C006822
:103F8000DFF8C41C0968401A50214843DFF8B81C08
:103F90000968DFF8AC2C1268511890FBF1F0DFF8DB
:103FA000A01C0968DFF89C2C1268891A6918DFF8D0
:103FB000982C1268891A64225143DFF8842C126805
:103FC000DFF8803C1B689A1891FBF2F10818DFF8C3
:103FD000841C0860DEE0DFF8680C0068DFF8641C11
:103FE0000968401A64214843DFF8541C0968DFF867
:103FF000542C1268511890FBF1F0DFF8441C09684A
:10400000DFF8442C1268891A50225143DFF8382C0B
:104010001268DFF82C3C1B689A1891FBF2F1081823
:10402000DFF8301C0860B5E0012C58D1DFF8180C1F
:104030000068A8423DDADFF80C0C0068DFF8001CCD
:10404000096888421ADADFF8F80B0068DFF8F41B19
:104050000968401A2818DFF8F01B0968401A642123
:104060004843DFF8DC1B0968DFF8D82B12685118C9
:1040700090FBF1F0DFF8DC1B08608BE0DFF8C00B91
:104080000068DFF8C01B0968401ADFF8BC1B09682C
:104090000818401B64214843DFF8A41B0968DFF8B7
:1040A000A42B1268511890FBF1F0DFF8A81B0860F0
:1040B00070E0DFF88C0B0068DFF8881B0968401A95
:1040C00064214843DFF8781B0968DFF8782B126811
:1040D000511890FBF1F0DFF87C1B08605AE0DFF824
:1040E000680B0068A8422DDADFF85C0B0068DFF887
:1040F000541B0968401A50214843DFF84C1B0968DB
:10410000DFF8402B1268511890FBF1F0DFF8301BFC
:104110000968DFF8302B1268891ADFF82C2B126837
:104120005118491B64225143DFF8142B1268DFF841
:10413000143B1B689A1891FBF2F10818DFF8141B66
:10414000086027E0DFF8F80A0068DFF8F81A096865
:10415000401A64214843DFF8E81A0968DFF8E42AC6
:104160001268511890FBF1F0DFF8DC1A0968DFF8EB
:10417000D42A1268891A50225143DFF8CC2A1268D7
:10418000DFF8C03A1B689A1891FBF2F10818DFF8C3
:10419000C41A0860DFF8BC0A0068DFF8BC1A0860BF
:1041A000DFF89C0A006807280FDADFF89C0A00682D
:1041B00007280ADADFF88C0A0068072805DADFF832
:1041C000900A0068DFF88C1A0860DFF87C0A006843
:1041D0006F2811DBDFF8980D006800280CD1DFF89C
:1041E000600A0068DFF85C1A09680818782803DAA2
:1041F0000120DFF8801D0860DFF84C0A006869289C
:104200001FDADFF8400A006869281ADADFF8300A96
:104210000068692815DADFF8280A0068652804DBD9
:10422000DFF8240A006865280BDADFF8180A00684E
:104230006528C0F23881DFF8100A00686528C0F2EE
:104240003281DFF8340D0068DFF8301D096808435B
:10425000DFF82C1D09680843DFF8281D09680843AA
:10426000002840F02081DFF8200D0068DFF81C1DD9
:1042700009680843DFF8181D09680843DFF8141DB2
:1042800009680843002840F00E81DFF80C0D006833
:10429000DFF8081D09680843002840F00481DFF8B2
:1042A000000D0068DFF8FC1C0968884203DADFF8BB
:1042B000F40C006802E0DFF8E80C0068DFF8801911
:1042C000096869292ADBDFF8DC1C09681A290CDB7C
:1042D000DFF8CC1C0968292907DBDFF8C81C09684E
:1042E000DFF8BC2C126891420EDBDFF8B81C0968BD
:1042F00047290EDBDFF8A81C0968472909DBDFF82E
:10430000441909683C2904DA0221DFF8902C116075
:1043100033E00121DFF8842C11602EE0DFF824194E
:104320000968692929DBDFF87C1C096829290CDB6D
:10433000DFF86C1C09681A2907DBDFF8641C0968C0
:10434000DFF8602C126891420EDBDFF8581C096818
:1043500047290EDBDFF8481C0968472909DBDFF82D
:10436000E01809683C2904DA0121DFF8302C1160DB
:1043700003E00221DFF8242C1160DFF8C41809687B
:1043800065292FDBDFF8C018096865292ADBDFF80B
:10439000141C09681A290CDBDFF8041C0968292998
:1043A00007DBDFF8001C0968DFF8F42B1268914284
:1043B0000EDBDFF8F01B096847290EDBDFF8E01B96
:1043C0000968472909DBDFF87C1809683C2904DA09
:1043D0000221DFF8C82B116065E00121DFF8BC2B5A
:1043E000116060E0DFF85C18096865292FDBDFF8F1
:1043F0005818096865292ADBDFF8A81B09682929EC
:104400000CDBDFF89C1B09681A2907DBDFF8901B1F
:104410000968DFF8902B126891420EDBDFF8841BED
:10442000096847290EDBDFF8781B0968472909DB93
:10443000DFF80C1809683C2904DA0121DFF85C2B4D
:10444000116030E00221DFF8542B11602BE0DFF81F
:10445000F8170968692926DBDFF8441B0968DFF8CB
:10446000442B126891420BDA1A2809DBDFF8D017C7
:104470000968422904DB0121DFF8202B116012E0DA
:10448000DFF8201B0968DFF8182B126891420ADA5E
:104490001A2808DBDFF8AC170968422903DB022180
:1044A000DFF8F82A1160DFF8000B0068DFF89017DA
:1044B000096888420CDADFF8900700686F2807DB8C
:1044C000DFF8E80A0068DFF87C170968884216DB25
:1044D000DFF8D40A0068DFF86C170968884280F2B8
:1044E0008780DFF8640700686528C0F28180DFF804
:1044F000BC0A0068DFF848170968884278DADFF8F4
:10450000780A0068DFF8741A09680843DFF8701A3F
:1045100009680843DFF86C1A09680843002867D166
:10452000DFF8640A0068DFF8641A09680843DFF8F6
:10453000601A09680843DFF85C1A09680843002814
:1045400056D1DFF8540A0068002851D1DFF84C0A30
:10455000006800284CD0DFF84C0A0068332820DBC4
:10456000DFF83C0A006833281BDBDFF8DC06006854
:10457000642816DBDFF8C80600685A2811DADFF86D
:10458000C40600685A280CDA0020DFF8101A086008
:104590000120DFF8E41908600120DFF8E019086065
:1045A00019E0DFF8F8090068012807D10120DFF8D9
:1045B000C81908600020DFF8E4190860DFF8DC099A
:1045C0000068022807D10120DFF8B0190860002038
:1045D000DFF8C8190860DFF8A0090068DFF89C1947
:1045E00009680843002803D00120DFF88419086017
:1045F000DFF88009006801280BD10020DFF89C1942
:1046000008600020DFF8701908600020DFF86C19DE
:104610000860DFF864090068012804D0DFF85C094D
:10462000006801282AD1DFF8140D006841F65931DD
:10463000884223DB0020DFF8401908600020DFF803
:10464000001D08600020DFF8FC1C08600020DFF877
:10465000F81C08600020DFF8E41C08600020DFF888
:104660001C1908600020DFF8E41C08600020DFF857
:10467000E01C08600020DFF8DC1C0860DFF8C805DB
:104680000068D0F15F06002E01D500200600092E3B
:1046900001DB08200600DFF808090068DFF80419CC
:1046A0000968884227DADFF8FC080068DFF8F018AC
:1046B0000968401ADFF8A01C09680818DFF89C1C7C
:1046C0000968471ADFF8DC080068DFF88C1C096805
:1046D000401A01F07FF9DFF8841C09680818DFF838
:1046E000C0180968401A022190FBF1F0C019DFF8E8
:1046F000701C086028E0DFF8AC080068DFF8A0183C
:104700000968401ADFF8501C09680818DFF84C1CCB
:104710000968471ADFF88C080068DFF83C1C096854
:10472000B0EB0108DFF8340C0068DFF87418096892
:10473000401A01F04FF9B8EB0000022190FBF1F0B4
:10474000C019DFF81C1C0860DFF834080068DFF8C7
:10475000341809680843002816D1DFF8D40CC06863
:10476000DFF8E4140968884204DBDFF8DC04006841
:104770005F2809DBDFF8E80B00687043082190FB35
:10478000F1F0DFF8DC1B0860DFF8D40B006801F003
:1047900021F90700DFF8BC04006801F01BF987422B
:1047A0000EDADFF8BC0B0068DFF8A81409680922EC
:1047B00002FB01000A2190FBF1F0DFF89814086079
:1047C000DFF8D8070068DFF8B01709680843DFF89A
:1047D000AC1709680843DFF8B417096808430028D4
:1047E00040F08080DFF8A0070068DFF8A4170968B0
:1047F0000843DFF8A01709680843002872D1DFF8E2
:104800005404006801F0E6F80700DFF8540B006874
:1048100001F0E0F8874265DADFF838040068DFF875
:10482000401B0968484300285CD4DFF8780700681B
:10483000DFF86C170968884203DADFF86807076851
:1048400002E0DFF85C070768DFF80804006801F0A1
:10485000C1F80B2802DB0A20804605E0DFF8F403EC
:10486000006801F0B7F880460B2F02DB0A20814672
:1048700000E0B946DFF8DC03006801F0ABF80A2875
:104880001CDADFF8D003006801F0A4F88246DFF8F4
:10489000D00A006801F09EF85FEA4A0181420DDA11
:1048A000DFF8A4030068582808DBDFF8D4060068A6
:1048B000DFF8D01609680843002813D019EB080068
:1048C000DFF89C1A0968D8F11402B2EB0902DFF88C
:1048D00084331B685A4301FB0020142190FBF1F044
:1048E000DC490860DB480068D8490860DFF88806C2
:1048F0000068002800F0D280DFF8A80600680B28C6
:1049000008DBDFF83C0A0068002803D10120DFF84B
:10491000301A0860DFF8280A006800280DD0DFF898
:10492000840600680A2808DADFF8180A00680028F8
:1049300003D10120DFF80C1A0860DFF8080A0068CC
:1049400000283AD0DFF858060068DFF858160968E2
:10495000491D884231DADFF84C0600680B282CDB51
:10496000DFF8E4090068002827D10120DFF8D81912
:104970000860DFF8C809006841F65931884218DB41
:104980000020DFF8F41508600020DFF8BC1908608B
:104990000020DFF8AC1908600020DFF8A8190860D3
:1049A0000020DFF8A01A08600020DFF890190860E6
:1049B00003E00120DFF88C1A0860DFF8880A00683D
:1049C00001282DD1DFF8DC0500680C30DFF8D015A8
:1049D0000968401ADFF8801909680818DFF87C199F
:1049E0000968471ADFF8BC050068DFF86C19096828
:1049F000401A00F0EFFFDFF8641909680818DFF8C3
:104A0000A0150968401A022190FBF1F0C0199149E4
:104A1000086090480068192802DA19208D4908605A
:104A20008C4800688949096888420EDADFF8140A60
:104A30000068002809D085480068864909688842CE
:104A400003D081480068462807DBDFF8FC090068CE
:104A500041F231118842C0F208840020DFF8E818E2
:104A600008600020DFF8101508600020DFF8D0187B
:104A700008600020DFF8CC1808600020DFF8C419B7
:104A800008600020DFF8B41808600120DFF8F01497
:104A900008600020DFF8B4190860E6E3DFF8DC0402
:104AA0000068002800F0DA80DFF8F40400680B28C2
:104AB00008DBDFF898080068002803D10120DFF840
:104AC0008C180860DFF88408006800280DD0DFF833
:104AD000D00400680A2808DADFF8740800680028A3
:104AE00003D10120DFF868180860DFF86408006867
:104AF000002839D0DFF8AC040068DFF8A414096896
:104B0000491D884230DADFF89804006810282BDB52
:104B1000DFF840080068002826D10120DFF83418AB
:104B20000860DFF818080068B0F5FA5F18DD0020AB
:104B3000DFF8481408600020DFF81818086000202B
:104B4000DFF8081808600020DFF80418086000206B
:104B5000DFF8E81708600020DFF8F418086003E0C9
:104B60000120DFF8EC180860DFF8E408006801288D
:104B700028D1DFF830040068001FDFF8241409682A
:104B8000401ADFF8D41709680818DFF8D017096849
:104B9000471ADFF810040068DFF8BC170968B0EBAB
:104BA0000108DFF8B8070068DFF8F4130968401A55
:104BB00000F010FFB8EB0000022190FBF1F0C019EB
:104BC00024490860214800682249096888420EDAB1
:104BD000DFF87C080068002809D01C4800681D49DF
:104BE0000968884203D018480068462807DBDFF8C8
:104BF0005808006841F231118842C0F23683002023
:104C0000DFF8781308600020DFF840170860002004
:104C1000DFF83C1708600020DFF838170860002034
:104C2000DFF82C1808600020DFF81017086001205A
:104C3000D44908600020DFF81418086015E300BFAD
:104C4000CC2EFF1FD82EFF1FE42EFF1FF82EFF1FB4
:104C5000604FFF1FF42EFF1FFC2EFF1FC848006887
:104C600000285DD0CF4800683D2859DBCC4800685B
:104C70003D2855DBC4480068002851D1DFF8C8073B
:104C80000068072190FBF1F010F59670DFF8C4176B
:104C90000860DFF8C007006840F6FC01884204DACB
:104CA00040F6FC00DFF8AC1708600120B649086048
:104CB0000020B3490860DFF8900700684CF25131DA
:104CC00088420ADB0020B04908600020DFF878172E
:104CD00008600020DFF87C170860DFF86C070068C8
:104CE000DFF8741708184FF4FA71484344F268214A
:104CF00090FBF1F000F6E440DFF860170860DFF8A1
:104D000048070068DFF8501708181221484344F29A
:104D1000682190FBF1F0D0F13200DFF84417086011
:104D20009748006800280FD0DFF8380700681A2875
:104D300006DBDFF830070068DFF82817086003E0BB
:104D40001920DFF8201708608F480068002800F05D
:104D500081809448006892490968401A00F03AFE40
:104D6000DFF8F41509680818DFF8F0150968471A24
:104D70008C480068DFF8E0150968401A00F02AFE48
:104D8000DFF8D8150968081885490968401A022112
:104D900090FBF1F0C019DFF8CC160968814225DAE2
:104DA000804800687E490968401A00F013FEDFF869
:104DB000A81509680818DFF8A4150968471A794882
:104DC0000068DFF894150968401A00F003FEDFF868
:104DD0008C150968081872490968401A022190FB6D
:104DE000F1F0C019DFF87C16086005E0DFF8740602
:104DF0000068DFF870160860DFF868060068801D3C
:104E0000DFF860160860DFF85C060068422803DB04
:104E10004120DFF850160860DFF848060068DFF828
:104E200040160968884205DADFF834060068DFF8C2
:104E300034160860DFF81C060068A0F6FC000521A7
:104E400048434FF4166190FBF1F0D0F10500DFF814
:104E5000FC150860DFF804060068DFF80C16096826
:104E6000884225DA48480068002821D04848006870
:104E700000281DD1012046490860002042490860F1
:104E80000020DFF8C41508600020DFF8E015086096
:104E90000020DFF8D41508600020DFF8D415086082
:104EA0000020DFF8D01508600020DFF8B01508609A
:104EB0003748006801282CD1DFF8BC050068DFF80E
:104EC00094150968884224DA2F480068002820D108
:104ED000DFF890050068012815DBDFF8A0050768FA
:104EE000304800682E490968401A00F073FD03211C
:104EF00090FBF1F0381A052190FBF1F0C01EDFF8AD
:104F00006415086005E0DFF874050068DFF85415E3
:104F100008601F480068012819D1DFF838050068CB
:104F2000DFF854150968884211DA0020DFF82415EB
:104F300008600020DFF84015086000201449086070
:104F40000020DFF8081508600020094908600D48B6
:104F50000068002831D0DFF80C05006810F1190F47
:104F600026DADFF800050068DFF8F814086024E0AE
:104F7000982AFF1F9C2AFF1F442AFF1F602AFF1F39
:104F8000542AFF1F702AFF1F582AFF1F742AFF1F71
:104F90005C2AFF1F782AFF1FB02AFF1F402AFF1F2D
:104FA000DC2EFF1FD02EFF1F482FFF1F4C2FFF1F8F
:104FB0007FF01800DFF8AC140860DFF8C404006864
:104FC000002863D0DFF8BC0400683D285EDBDFF812
:104FD000B80400683D2859DBDFF8B00400680028F9
:104FE00054D10120DFF8A41408600020DFF89014E9
:104FF0000860DFF854040068072190FBF1F010F519
:105000009670DFF850140860DFF84804006840F636
:10501000FC01884204DA40F6FC00DFF8381408602E
:10502000DFF8240400684CF2513188420BDB002089
:10503000DFF8581408600020DFF80C140860002026
:10504000DFF810140860DFF800040068DFF80814C7
:1050500008184FF4FA71484344F2682190FBF1F0CC
:1050600000F6E440DFF8F4130860DFF8DC030068C2
:10507000DFF8E41308181221484344F2682190FB3A
:10508000F1F0D0F13200DFF808140860DFF8FC031B
:105090000068002800F07F80DFF8E8030068DFF890
:1050A000E8130968401A00F095FCAB490968081A32
:1050B000AA490968471ADFF8CC030068A6490968BD
:1050C000B0EB0108A5480068DFF8BC130968401A76
:1050D00000F080FCB8EB0000022190FBF1F0C01959
:1050E000DFF880130968884227DADFF89803006840
:1050F000DFF894130968401A00F06CFC96490968BF
:10510000081A96490968471ADFF878030068924937
:105110000968B0EB010891480068DFF86C13096872
:10512000401A00F057FCB8EB0000022190FBF1F0B0
:10513000C019DFF83013086005E0DFF828030068C5
:10514000DFF820130860DFF81C03006810F1410F3E
:1051500004DA7FF04000DFF80C130860DFF830035A
:1051600000684042DFF8FC120968884205DADFF87F
:10517000200300684042BB490860B6480068A0F6BA
:10518000FC00052148434FF4166190FBF1F0D0F18B
:105190000500AE490860B1480068B3490968884213
:1051A0001FDABA48006800281BD0BA4800680028F7
:1051B00017D10120B74908600020B44908600020D9
:1051C000A14908600020B44908600020A649086091
:1051D0000020B24908600020A649086000209F49CD
:1051E0000860AC480068012826D1A34800689949A6
:1051F0000968884220DAA548006800281CD199482F
:105200000068002813D59D4807689E4800689E499D
:105210000968401A00F0DEFB032190FBF1F0C01991
:10522000052190FBF1F0C01C8E4908601DE09348F9
:1052300000688C49086018E096480068012814D17D
:10524000844800688C49096888420EDA0020814948
:10525000086000208F49086000208749086000200E
:105260008F490860002079490860764800688D49B8
:1052700009680843002816D08B4800688B490968E4
:10528000884205DA8848006889490968884207DB4E
:1052900086480068192806DA85480068192802DA65
:1052A0005020704908606A480068754909680843D9
:1052B000002817D07C4800687C490968884205DAD4
:1052C000794800687A490968884207DB77480068AE
:1052D000192807DA76480068192803DA7FF04F00AA
:1052E000604908600320012809DB724911EB800145
:1052F00051F8041C6F4A42F82010401EF3E7594849
:1053000000686C490860574800686A49C968401AD3
:10531000694908600320012809DB454911EB800138
:1053200051F8041C424A42F82010401EF3E75E4840
:1053300000683F490860BDE8F0870000882AFF1F29
:10534000502AFF1F4C2AFF1F482AFF1F682AFF1FF1
:105350006C2AFF1F642AFF1FD42EFF1FE02EFF1FA1
:10536000E82EFF1F10B5544801683E48006800F061
:10537000DBFB52490860504801683A48006800F079
:1053800039FD5FF07E5100F0F7FF4D4908603D4860
:105390000068012817D13C480068012813D149480A
:1053A000006803280FDA4848006803280BDA4348EE
:1053B000006801F023F8454A454BFEF7F1F901F08A
:1053C00045F83E4908602748006801F087F83B49E6
:1053D000096801F09BF83F4900F0CEFF0400364811
:1053E000006801F07BF83649096801F08FF8010088
:1053F000200000F0C1FF01F0F5F8374908601948B6
:105400000068364908603448006842F2CB1188428F
:1054100003DB42F2CA10304908602F48006841F6A9
:105420006C31884203DA41F66C302B49086010BDBC
:10543000644FFF1F80B5284802680021012000F05A
:105440009BF901BDA02AFF1F842AFF1F544FFF1F95
:10545000A42AFF1F902AFF1F50C9FFFF744FFF1F90
:10546000784FFF1FF42EFF1F7C2AFF1F584FFF1F8E
:10547000804FFF1F884FFF1F8C2AFF1FFC2EFF1F2E
:10548000702AFF1FD02EFF1FDC2EFF1F742AFF1F64
:105490007C4FFF1F782AFF1F5C4FFF1F844FFF1FA9
:1054A000982AFF1F542AFF1FE42EFF1FCC2EFF1F38
:1054B000D82EFF1F0815FF1F0415FF1FEC2EFF1F1E
:1054C000F02EFF1FD42EFF1FE02EFF1FCDCCCCCC23
:1054D000CCCCEC3F00D0F245042FFF1F002FFF1F64
:1054E00038B504000D0064B2002C03D0022C66D045
:1054F00049D380E0DFF8C804006850F08070DFF81E
:10550000C01408606DB2002D0BD0022D15D00ED343
:10551000042D1ED017D3062D27D020D3072D2AD037
:105520002FE04FF480614120FCF74EFE2AE04FF45B
:1055300040710420FCF748FE24E04FF44071052040
:10554000FCF742FE1EE04FF440710620FCF73CFEE3
:1055500018E04FF440710720FCF736FE12E04FF4DC
:1055600080616520FCF730FE0CE04FF4806166201E
:10557000FCF72AFE06E04FF480616720FCF724FE6A
:1055800000E038E037E0DFF83804006850F00070E1
:10559000DFF82C1408606DB2002D02D0012D06D06A
:1055A0000BE04FF440710C20FCF70EFE06E04FF4C8
:1055B00040710D20FCF708FE00E01CE01BE0DFF866
:1055C0000404006850F08070DFF8F81308606DB2D2
:1055D000002D02D0012D06D00BE04FF440710A20BF
:1055E000FCF7F2FD06E04FF440710B20FCF7ECFDF8
:1055F00000E000E0FFE731BD2DE9F84F04000D00A9
:1056000016001F0064B2002C0ED064B2012C02D030
:1056100064B2022C02D16DB2022D05DB4FF4C271CF
:10562000DFF8A403FCF76FFE290049B2200040B266
:10563000FFF756FFDFF8940300684FF47A71484390
:1056400080465FEA1840B0FBF6F0814600208246B3
:105650001FFA89F9484650FA0AF0012802DB1AF1CC
:10566000010AF5E75FFA8AFABAF1080F05DB40F2A2
:105670009F11DFF85403FCF746FE404630FA0AF06B
:10568000B0FBF6F0814664B2002C03D0022C19D096
:105690000CD322E01FFA89F919F1010000FB07F091
:1056A0004FF47A71B0FBF1F0834616E01FFA89F9E6
:1056B00019F1010000FB07F04FF22441B0FBF1F0BB
:1056C00083460AE01FFA89F919F1010000FB07F08F
:1056D0006421B0FBF1F08346FFE7DFF8F40264B227
:1056E00050F824006DB210EBC500DFF8E41264B28C
:1056F00051F824106DB211EBC501C96831F00401F5
:10570000C160DFF8CC0264B250F824006DB210EB37
:10571000C5002821C1605FFA8AFA1AF0070050F02C
:105720000800DFF8AC1264B251F8241008601FFAC8
:1057300089F9DFF89C0264B250F82400C0F80890A0
:105740000020DFF88C1264B251F82410C864DFF82E
:10575000800264B250F824006DB210EBC5001FFA4D
:105760008BFBC0F810B00020DFF8641264B251F86F
:1057700024104860BDE8F18F2DE9F04104000D00D0
:1057800016005FF0000864B2002C0ED064B2012C49
:1057900002D064B2022C02D16DB2022D05DB40F2C0
:1057A000E311DFF82402FCF7AEFD64B2002C03D055
:1057B000022C16D00AD31DE0B6F57A7F05D940F247
:1057C000E911DFF80402FCF79EFD13E04FF22540DB
:1057D000864205D340F2ED11DFF8EC01FCF793FDB2
:1057E00008E0652E05D340F2F111DFF8DC01FCF78B
:1057F0008AFDFFE7DFF8D80164B250F82400806822
:105800008046B8F1000FF5D064B2002C03D0022C12
:1058100015D00AD31CE018F1010000FB06F04FF48C
:105820007A71B0FBF1F0070012E018F1010000FB03
:1058300006F04FF22441B0FBF1F0070008E018F148
:10584000010000FB06F06421B0FBF1F00700FFE768
:10585000DFF87C0164B250F824006DB210EBC50093
:105860000761BDE8F08110B5040064B2012C07D0D7
:1058700064B2022C04D040F2DA215348FCF743FD15
:1058800064B22000012802D0022811D021E04C4847
:10589000006850F000704A4908604FF4C061082069
:1058A000FCF792FC4FF4C0610920FCF78DFC15E079
:1058B0004448006850F08070424908604FF4C0616D
:1058C0000A20FCF781FC4FF4C0610B20FCF77CFC44
:1058D00004E040F212313C48FCF715FD3C4864B24C
:1058E00050F82400406D50F00400394964B251F87A
:1058F00024104865364864B250F82400D0F880007F
:1059000050F00800324964B251F82410C1F8800008
:1059100000202F4964B251F82410C8644FF6FF707C
:105920002B4964B251F824108860294864B250F8B9
:105930002400D0F8800050F00100254964B251F8ED
:105940002410C1F88000224864B250F82400406D51
:1059500050F001001E4964B251F82410486500203F
:105960001B4964B251F82410486010BD38B50400DA
:1059700064B2012C07D064B2022C04D040F22F3163
:105980001148FCF7C0FC124864B250F8240040688B
:105990000500280000B232BD10B5040064B2012C2D
:1059A00007D064B2022C04D040F23D310648FCF727
:1059B000AAFC0020064964B251F82410486010BDCA
:1059C0003C8004403080044094D50000944FFF1F79
:1059D000500EFF1F002848BF40427047F8B5040032
:1059E0000D0016001F002800210000F01DFE01D848
:1059F000002037E02800210000F028FE12D23000FD
:105A0000210000F011FE0DD82000290000F030FE2A
:105A100004003000290000F02BFE0100200000F0FF
:105A20009BFE1FE03000210000F010FE12D2380073
:105A3000210000F0F9FD0DD83800210000F018FE1B
:105A400004003800310000F013FE0100200000F0D7
:105A500083FE07E03800210000F0F8FD01D20020AD
:105A600000E00020F2BD70B503000C00150020001E
:105A7000190000F0D9FD02D85FF07E501FE0200031
:105A8000190000F0E3FD12D22800190000F0CCFD4F
:105A90000DD82800190000F0EBFD060028002100B9
:105AA00000F0E6FD0100300000F056FE07E028009F
:105AB000190000F0CBFD01D2002000E0002070BDF5
:105AC00070B503000C0015002000190000F0ACFDBB
:105AD00001D8002021E02000190000F0B7FD12D20B
:105AE0001800290000F0B2FD0DD21800210000F0CE
:105AF000BFFD06002800210000F0BAFD01003000C3
:105B000000F02AFE09E01800290000F08DFD02D8FF
:105B10005FF07E5001E05FF07E5070BD80B500F018
:105B200095FD00D3080002BD2DE9F04FCFB0040071
:105B30000D0001A81C2100F08DFE08A81C2100F01A
:105B400089FE512C01DB5020040014F1500F02DAC1
:105B50007FF04F0004000D2D01DB0C20050015F136
:105B60000C0F02DA7FF00B000500032000FB04F0AD
:105B7000282190FBF1F000F0B1FC0700022095FB1A
:105B8000F0F000F0ABFC8046DFF8D427DFF8D41744
:105B90003800FFF768FF16905FF04043DFF8C0273A
:105BA000DFF8C0173800FFF719FF179000235FF0E8
:105BB0004042DFF8AC173800FFF710FF18905FF095
:105BC000804300225FF040413800FFF707FF199043
:105BD0005FF081435FF0804200213800FFF7FEFE56
:105BE0001A90DFF884375FF081425FF0804138001F
:105BF000FFF7F4FE1B90DFF870275FF0814138005B
:105C0000FFF75EFF1C90DFF85827DFF85817404673
:105C1000FFF729FF0F905FF04043DFF84427DFF8DC
:105C200044174046FFF7DAFE109000235FF0404231
:105C3000DFF82C174046FFF7D1FE11905FF080434C
:105C400000225FF040414046FFF7C8FE12905FF02F
:105C500081435FF0804200214046FFF7BFFE139072
:105C6000DFF804375FF081425FF080414046FFF784
:105C7000B5FE1490DFF8F0265FF081414046FFF753
:105C80001FFF15905FF00009B9F1070F30DA5FF0E0
:105C9000000ABAF1070F28DA1DA81C2101FB090B25
:105CA0000FA850F82A1016A850F82900FFF736FF61
:105CB0004BF82A0001A850F829001DA91C2202FB5C
:105CC000091151F82A1000F0C1FC0BD21DA81C21AB
:105CD00001FB090050F82A0001A941F8290008A891
:105CE00040F829A01AF1010AD3E719F10109CBE71D
:105CF0000199029800F040FB039900F03DFB0499E4
:105D000000F03AFB059900F037FB069900F034FBF0
:105D1000079900F031FB0600DFF85006089950F8AB
:105D2000210000F0DBFB019900F0F0FB8146DFF879
:105D30003C06099910EB8100C06900F0CFFB029985
:105D400000F0E4FB494600F017FB8146DFF81C0633
:105D50000A9910EB8100806B00F0C0FB039900F002
:105D6000D5FB494600F008FB8146DFF800060B9999
:105D700010EB8100406D00F0B1FB049900F0C6FB10
:105D8000494600F0F9FA8146DFF8E0050C9910EB7E
:105D90008100006F00F0A2FB059900F0B7FB4946B7
:105DA00000F0EAFA8146DFF8C4050D9910EB810096
:105DB000D0F88C0000F092FB069900F0A7FB494652
:105DC00000F0DAFA8146DFF8A4050E9910EB8100A5
:105DD000D0F8A80000F082FB079900F097FB494635
:105DE00000F0CAFA00900098310000F0B5FC4FB006
:105DF000BDE8F08F2DE9F04FCFB004000D0001A8F1
:105E00001C2100F027FD08A81C2100F023FD512CC7
:105E100001DB5020040014F1500F02DA7FF04F0034
:105E200004000D2D01DB0C20050015F10C0F02DA2A
:105E30007FF00B000500032000FB04F0282190FBFD
:105E4000F1F000F04BFB0700022095FBF0F000F0B2
:105E500045FB8046DFF80825DFF808153800FFF716
:105E600002FE16905FF04043DFF8F424DFF8F414EC
:105E70003800FFF7B3FD179000235FF04042DFF8D2
:105E8000E0143800FFF7AAFD18905FF0804300226D
