:10000000F8FF002011040000872300008723000070
:100010008723000087230000872300008723000038
:100020008723000087230000872300008723000028
:100030008723000087230000872300008723000018
:100040008723000087230000872300008723000008
:10040000FFFFFFFFFFFFFFFFFFFFFFFFFEFFFFFFFD
:1004100062B605F09BFDFEE710B500200400E4B2D3
:10042000082C08DA0022012114F14000C0B201F0CA
:1004300009FE641CF3E700220121492001F002FEBD
:10044000012201214A2001F0FDFD012201214B2062
:1004500001F0F8FD002201214C2001F0F3FD002203
:1004600001214D2001F0EEFD4FF4A071492001F073
:1004700081FE4FF4A0714A2001F07CFE4FF4A07180
:100480004B2001F077FE4FF4A0714C2001F072FE7A
:100490000020DFF8241D08600120DFF81C1D086023
:1004A0004FF4FA7001F0D9FE0120DFF8101D08604A
:1004B0000020DFF80C1D08600020DFF8081D086030
:1004C0001120DFF8041D08700020DFF8001D08600F
:1004D0000120DFF8F81C08600120DFF8E81C086044
:1004E000782001F0BAFE0120DFF8D01C086000205F
:1004F000DFF8CC1C08600020DFF8C81C0860B120C1
:10050000DFF8C41C08700020DFF8C01C0860012060
:10051000DFF8B81C08600120DFF8A81C0860012083
:10052000DFF8981C08600120DFF8941C08600020A8
:10053000DFF8901C08600520DFF88C1C0870002094
:10054000DFF8881C08600120DFF8801C08600120AB
:10055000DFF8701C08600120DFF8601C08600120D3
:10056000DFF85C1C08600020DFF8581C08603A20A7
:10057000DFF8541C08700020DFF8501C08600120D0
:10058000DFF8481C08600120DFF8381C08600120F3
:10059000DFF8281C08600120DFF8241C0860002018
:1005A000DFF8201C08603A20DFF81C1C08700020CF
:1005B000DFF8181C08600120DFF8101C086001201B
:1005C000DFF8001C08600120DFF8F01B0860002045
:1005D000DFF8EC1B08600020DFF8E81B0860B220A1
:1005E000DFF8E41B08700020DFF8E01B0860012042
:1005F000DFF8D81B08600120DFF8C81B0860012065
:10060000DFF8B81B08600120DFF8B41B0860002089
:10061000DFF8B01B08600520DFF8AC1B0870002075
:10062000DFF8A81B08600120DFF8A01B086001208C
:10063000DFF8901B08600120DFF8801B08600120B4
:10064000DFF87C1B08600020DFF8781B08603A2088
:10065000DFF8741B08700020DFF8701B08600120B1
:10066000DFF8681B08600120DFF8581B08600120D4
:10067000DFF8481B08600120DFF8441B08600020F9
:10068000DFF8401B08603A20DFF83C1B08700020B0
:10069000DFF8381B08600120DFF8301B08600120FC
:1006A000DFF8201B08600120DFF8101B0860002025
:1006B000DFF80C1B08600020DFF8081B0860B3207F
:1006C000DFF8041B08700020DFF8001B0860012021
:1006D000DFF8F81A08600120DFF8E81A0860012046
:1006E000DFF8D81A08600120DFF8D41A086000206B
:1006F000DFF8D01A08600520DFF8CC1A0870002057
:10070000DFF8C81A08600120DFF8C01A086001206D
:10071000DFF8B01A08600120DFF8A01A0860012095
:10072000DFF89C1A08600020DFF8981A08603A2069
:10073000DFF8941A08700020DFF8901A0860012092
:10074000DFF8881A08600120DFF8781A08600120B5
:10075000DFF8681A08600120DFF8641A08600020DA
:10076000DFF8601A08603A20DFF85C1A0870002091
:10077000DFF8581A08600120DFF8501A08600120DD
:10078000DFF8401A08600120DFF8301A0860012005
:10079000DFF82C1A08600020DFF8281A086005200E
:1007A000DFF8241A08700020DFF8201A0860012002
:1007B000DFF8181A08600120DFF8081A0860012025
:1007C000DFF8F81908600120DFF8F419086000204C
:1007D000DFF8F01908603A20DFF8EC190870002003
:1007E000DFF8E81908600120DFF8E019086001204F
:1007F000DFF8D01908600120DFF8C0190860012077
:10080000DFF8BC1908600020DFF8B81908603A204A
:10081000DFF8B41908700020DFF8B0190860012073
:10082000DFF8A81908600120DFF898190860012096
:10083000DFF8881908600020DFF8841908600020BC
:10084000DFF880190860B420DFF87C1908700020F8
:10085000DFF8781908600120DFF8701908600120BE
:10086000DFF8601908600120DFF8501908600120E6
:10087000DFF84C1908600020DFF8481908600720ED
:10088000DFF8441908700020DFF8401908600120E3
:10089000DFF8381908600120DFF828190860012006
:1008A000DFF8181908600020DFF81419086000202C
:1008B000DFF810190860C020DFF80C19087000205C
:1008C000DFF8081908600120DFF80019086001202E
:1008D000DFF8F01808600120DFF8E0180860012058
:1008E000DFF8DC1808600020DFF8D818086028203E
:1008F000DFF8D41808700020DFF8D0180860012055
:10090000DFF8C81808600120DFF8B8180860012077
:10091000DFF8A81808600120DFF8A418086000209C
:10092000DFF8A01808600820DFF89C180870002085
:10093000DFF8981808600120DFF89018086001209F
:10094000DFF8801808600120DFF8701808600120C7
:10095000DFF86C1808600020DFF868180860842051
:10096000DFF8641808700020DFF8601808600120C4
:10097000DFF8581808600120DFF8481808600120E7
:10098000DFF8381808600020DFF83418086000200D
:10099000DFF830180860C120DFF82C18087000203C
:1009A000DFF8281808600120DFF82018086001200F
:1009B000DFF8101808600120DFF800180860012037
:1009C000DFF8FC1708600020DFF8F8170860C02087
:1009D000DFF8F41708700020DFF8F0170860012036
:1009E000DFF8E81708600120DFF8D8170860012059
:1009F000DFF8C81708600020DFF8C417086000207F
:100A0000DFF8C0170860C220DFF8BC1708700020AC
:100A1000DFF8B81708600120DFF8B0170860012080
:100A2000DFF8A01708600120DFF8901708600120A8
:100A3000DFF88C1708600020DFF8881708600C20AA
:100A4000DFF8841708700020DFF8801708600120A5
:100A5000DFF8781708600120DFF8681708600120C8
:100A6000DFF8581708600120DFF8541708600020ED
:100A7000DFF8501708600020DFF84C1708700020DE
:100A8000DFF8481708600120DFF8401708600120F0
:100A9000DFF8301708600120DFF820170860002019
:100AA000DFF81C1708600020DFF818170860C32063
:100AB000DFF8141708700020DFF810170860012015
:100AC000DFF8081708600120DFF8F8160860012039
:100AD000DFF8E81608600120DFF8E416086000205F
:100AE000DFF8E01608608C20DFF8DC1608700020C4
:100AF000DFF8D81608600120DFF8D0160860012062
:100B0000DFF8C01608600120DFF8B0160860012089
:100B1000DFF8AC1608600020DFF8A81608602A206D
:100B2000DFF8A41608700020DFF8A0160860012086
:100B3000DFF8981608600120DFF8881608600120A9
:100B4000DFF8781608600020DFF8741608600020CF
:100B5000DFF870160860C420DFF86C1608700020FB
:100B6000DFF8681608600120DFF8601608600120D1
:100B7000DFF8501608600120DFF8401608600120F9
:100B8000DFF83C1608600020DFF8381608608A207D
:100B9000DFF8341608700020DFF8301608600120F6
:100BA000DFF8281608600120DFF818160860012019
:100BB000DFF8081608600120DFF80416086000203E
:100BC000DFF800160860EE20DFF8FC150870002042
:100BD000DFF8F81508600120DFF8F0150860012043
:100BE000DFF8E01508600120DFF8D015086000206C
:100BF000DFF8CC1508600020DFF8C8150860C520B4
:100C0000DFF8C41508700020DFF8C0150860012067
:100C1000DFF8B81508600120DFF8A815086001208A
:100C2000DFF8981508600120DFF8941508600020AF
:100C3000DFF8901508600C20DFF88C150870002094
:100C4000DFF8881508600120DFF8801508600120B2
:100C5000DFF8701508600120DFF8601508600020DB
:100C6000DFF85C1508600020DFF858150860E02008
:100C7000DFF8541508700020DFF8501508600120D7
:100C8000DFF8481508600120DFF8381508600120FA
:100C9000DFF8281508600120DFF82415086000201F
:100CA000DFF8201508600520DFF81C15087000200B
:100CB000DFF8181508600120DFF810150860012022
:100CC000DFF8001508600120DFF8F014086001204B
:100CD000DFF8EC1408600020DFF8E81408601A2040
:100CE000DFF8E41408700020DFF8E0140860012049
:100CF000DFF8D81408600120DFF8C814086001206C
:100D0000DFF8B81408600120DFF8B4140860002090
:100D1000DFF8B01408600C20DFF8AC140870002075
:100D2000DFF8A81408600120DFF8A0140860012093
:100D3000DFF8901408600120DFF8801408600120BB
:100D4000DFF87C1408600020DFF8781408600E20BB
:100D5000DFF8741408700020DFF8701408600120B8
:100D6000DFF8681408600120DFF8581408600120DB
:100D7000DFF8481408600120DFF844140860002000
:100D8000DFF8401408603A20DFF83C1408700020B7
:100D9000DFF8381408600120DFF830140860012003
:100DA000DFF8201408600120DFF81014086001202B
:100DB000DFF80C1408600020DFF808140860342005
:100DC000DFF8041408700020DFF800140860012028
:100DD000DFF8F81308600120DFF8E813086001204D
:100DE000DFF8D81308600120DFF8D4130860002072
:100DF000DFF8D01308602D20DFF8CC130870002036
:100E0000DFF8C81308600120DFF8C0130860012074
:100E1000DFF8B01308600120DFF8A013086001209C
:100E2000DFF89C1308600020DFF8981308602F207B
:100E3000DFF8941308700020DFF890130860012099
:100E4000DFF8881308600120DFF8781308600120BC
:100E5000DFF8681308600120DFF8641308600020E1
:100E6000DFF8601308602D20DFF85C1308700020A5
:100E7000DFF8581308600120DFF8501308600120E4
:100E8000DFF8401308600120DFF83013086001200C
:100E9000DFF82C1308600020DFF8281308602A20F0
:100EA000DFF8241308700020DFF820130860012009
:100EB000DFF8181308600120DFF80813086001202C
:100EC000DFF8F81208600120DFF8F4120860002053
:100ED000DFF8F01208602F20BB4908700020BB49E2
:100EE00008600120B94908600120B6490860012066
:100EF000B24908600120B24908600020B149086089
:100F00003C20B14908700020B04908600120AF4979
:100F100008600120AB4908600120A8490860012051
:100F2000A74908600020A74908600020A64908706A
:100F30000020A64908600120A44908600120A149B9
:100F4000086001209D49086001209D49086000203B
:100F50009C49086001209C49087000209B4908605A
:100F600001209A49086001209649086001209349B0
:100F70000860012092490860002092490860022020
:100F80009149087000209149086001208F4908604C
:100F900001208C49086001208849086001208849A7
:100FA00008600020874908601020874908700020E9
:100FB0008649086001208549086001208149086050
:100FC00001207E49086000207D49086000207D499D
:100FD0000860E1207C49087000207C4908600120FD
:100FE0007A49086001207749086001207349086048
:100FF000012073490860002072490860042072498A
:1010000008700020714908600120704908600120C3
:101010006C4908600120694908600120684908603E
:101020000020684908601B20674908700020674954
:1010300008600120654908600120624908600120BC
:101040005E49086001205E49086000205D49086033
:101050000D205D49087000205C49086001205B4953
:1010600008600120574908600120544908600120A8
:10107000534908600020534908600E205249087007
:1010800000205249086001205049086001204D4964
:101090000860012049490860012049490860002092
:1010A000484908602D2048490870002047490860D9
:1010B00001204649086001204249086001203F495B
:1010C000086001203E49086000203E490860292050
:1010D0003D49087000203D49086001203B490860F7
:1010E0000120384908600120344908600120344952
:1010F000086000203349086024203349087000202C
:101100003249086001203149086001202D490860FA
:1011100001202A4908600120294908600020294946
:10112000086029202849087000202849086001200B
:101130002649086001202349086001201F490860F2
:1011400001201F49086000201E49086028201E4910
:10115000087000201D49086001201C49086001201A
:1011600018490860012015490860012014490860E9
:1011700000201449086026201349087000201349F4
:10118000086001201149086001200E490860012013
:101190000A49086001200A490860002009490860DE
:1011A00031200949087000200849086001200749DA
:1011B0000860012003490BE03410FE432810FE4371
:1011C0003010FE432C10FE4380F00F402410FE43ED
:1011D00008600120DFF80C1C08600120DFF8081C03
:1011E00008600020DFF8041C08603B20DFF8001CCA
:1011F00008700020DFF8FC1B08600120DFF8F41BFA
:1012000008600120DFF8E41B08600120DFF8D41B30
:1012100008600120DFF8D01B08600020DFF8CC1B3D
:1012200008600020DFF8C81B08700020DFF8C41B2E
:1012300008600120DFF8BC1B08600120DFF8AC1B50
:1012400008600120DFF89C1B08600120DFF8981B74
:1012500008600020DFF8941B08600020DFF8901B76
:1012600008700020DFF88C1B08600120DFF8841B69
:1012700008600120DFF8741B08600120DFF8641BA0
:1012800008600120DFF8601B08600020DFF85C1BAD
:1012900008600320DFF8581B08700020DFF8541B9B
:1012A00008600120DFF84C1B08600120DFF83C1BC0
:1012B00008600120DFF82C1B08600120DFF8281BE4
:1012C00008600020DFF8241B08601220DFF8201BD4
:1012D00008700020DFF81C1B08600120DFF8141BD9
:1012E00008600120DFF8041B08600120DFF8F41A11
:1012F00008600020DFF8F01A08600020DFF8EC1A20
:1013000008603A20DFF8E81A08700020DFF8E41AD5
:1013100008600120DFF8DC1A08600120DFF8CC1A31
:1013200008600120DFF8BC1A08600120DFF8B81A55
:1013300008600020DFF8B41A08600520DFF8B01A52
:1013400008700020DFF8AC1A08600120DFF8A41A4A
:1013500008600120DFF8941A08600120DFF8841A81
:1013600008600020DFF8801A08600020DFF87C1A8F
:1013700008602920DFF8781A08700020DFF8741A56
:1013800008600120DFF86C1A08600120DFF85C1AA1
:1013900008600120DFF84C1A08600020DFF8481AC6
:1013A00008600020DFF8441A08602C20DFF8401A9B
:1013B00008700020DFF83C1A08600120DFF8341ABA
:1013C00008600120DFF8241A0860DFF8540C007868
:1013D00000F001F810BD10B50400E4B2042C04DBE9
:1013E000C821DFF8400C00F064FFDFF8340C047013
:1013F000E4B2002C09D0022C00F0B982C0F05E816A
:10140000032C00F0EA8300F0EBBC0120DFF8D419D4
:1014100008600020DFF8D01908600020DFF8CC1940
:1014200008603620DFF8C81908700020DFF8C419FA
:1014300008600120DFF8BC1908600120DFF8AC1952
:1014400008600120DFF89C1908600120DFF8981976
:1014500008600020DFF894190860C820DFF89019B0
:1014600008700020DFF88C1908600120DFF884196B
:1014700008600120DFF8741908600120DFF86419A2
:1014800008600020DFF8601908600020DFF85C19B0
:1014900008602A20DFF8581908700020DFF8541976
:1014A00008600120DFF84C1908600120DFF83C19C2
:1014B00008600120DFF82C1908600120DFF82819E6
:1014C00008600020DFF8241908600020DFF82019E8
:1014D00008700020DFF81C1908600120DFF81419DB
:1014E00008600120DFF8041908600120DFF8F41813
:1014F00008600120DFF8F01808600020DFF8EC1821
:1015000008600220DFF8E81808700020DFF8E4180F
:1015100008600120DFF8DC1808600120DFF8CC1833
:1015200008600120DFF8BC1808600120DFF8B81857
:1015300008600020DFF8B41808600020DFF8B01859
:1015400008700020DFF8AC1808600120DFF8A4184C
:1015500008600120DFF8941808600120DFF8841883
:1015600008600120DFF8801808600020DFF87C1890
:1015700008608120DFF8781808700020DFF8741800
:1015800008600120DFF86C1808600120DFF85C18A3
:1015900008600120DFF84C1808600020DFF84818C8
:1015A00008600020DFF8441808602B20DFF840189E
:1015B00008700020DFF83C1808600120DFF83418BC
:1015C00008600120DFF8241808600120DFF81418F3
:1015D00008600120DFF8101808600020DFF80C1800
:1015E00008600020DFF8081808700020DFF80418F1
:1015F00008600120DFF8FC1708600120DFF8EC1715
:1016000008600120DFF8DC1708600120DFF8D81738
:1016100008600020DFF8D41708600320DFF8D01737
:1016200008700020DFF8CC1708600120DFF8C4172D
:1016300008600120DFF8B41708600120DFF8A41764
:1016400008600120DFF8A01708600020DFF89C1771
:1016500008600020DFF8981708700020DFF8941762
:1016600008600120DFF88C1708600120DFF87C1784
:1016700008600120DFF86C1708600120DFF86817A8
:1016800008600020DFF8641708608220DFF8601728
:1016900008700020DFF85C1708600120DFF854179D
:1016A00008600120DFF8441708608020DFF878190F
:1016B00008808020DFF87419088091E30120DFF8AA
:1016C000241708600020DFF8201708600020DFF8EA
:1016D0001C1708603620DFF8181708700020DFF8A4
:1016E000141708600120DFF80C1708600120DFF8EC
:1016F000FC1608600120DFF8EC1608600120DFF816
:10170000E81608600020DFF8E4160860A820DFF87B
:10171000E01608700020DFF8DC1608600120DFF812
:10172000D41608600120DFF8C41608600120DFF835
:10173000B41608600020DFF8B01608600020DFF85B
:10174000AC1608602A20DFF8A81608700020DFF821
:10175000A41608600120DFF89C1608600120DFF85D
:101760008C1608600120DFF87C1608600120DFF885
:10177000781608600020DFF8741608600020DFF893
:10178000701608700020DFF86C1608600120DFF882
:10179000641608600120DFF8541608600120DFF8A5
:1017A000441608600120DFF8401608600020DFF8CA
:1017B0003C1608600320DFF8381608700020DFF8B8
:1017C000341608600120DFF82C1608600120DFF8CD
:1017D0001C1608600120DFF80C1608600120DFF8F5
:1017E000081608600020DFF8041608600020DFF803
:1017F000001608700020DFF8FC1508600120DFF8F3
:10180000F41508600120DFF8E41508600120DFF816
:10181000D41508600120DFF8D01508600020DFF83B
:10182000CC1508608220DFF8C81508700020DFF8AA
:10183000C41508600120DFF8BC1508600120DFF83E
:10184000AC1508600120DFF89C1508600020DFF867
:10185000981508600020DFF8941508602B20DFF849
:10186000901508700020DFF88C1508600120DFF863
:10187000841508600120DFF8741508600120DFF886
:10188000641508600120DFF8601508600020DFF8AB
:101890005C1508600020DFF8581508700020DFF89C
:1018A000541508600120DFF84C1508600120DFF8AE
:1018B0003C1508600120DFF82C1508600120DFF8D6
:1018C000281508600020DFF8241508600220DFF8E2
:1018D000201508700020DFF81C1508600120DFF8D3
:1018E000141508600120DFF8041508600120DFF8F6
:1018F000F41408600120DFF8F01408600020DFF81D
:10190000EC1408600020DFF8E81408700020DFF80D
:10191000E41408600120DFF8DC1408600120DFF81F
:10192000CC1408600120DFF8BC1408600120DFF847
:10193000B81408600020DFF8B41408608120DFF8D4
:10194000B01408700020DFF8AC1408600120DFF844
:10195000A41408600120DFF8941408608020DFF8E8
:10196000C81608808020DFF8C416088038E20120FD
:10197000DFF8701408600020DFF86C1408600020A5
:10198000DFF8681408603620DFF86414087000205F
:10199000DFF8601408600120DFF8581408600120A7
:1019A000DFF8481408600120DFF8381408600120CF
:1019B000DFF8341408600020DFF8301408600820D5
:1019C000DFF82C1408700020DFF8281408600120CC
:1019D000DFF8201408600120DFF8101408600120EF
:1019E000DFF8001408600020DFF8FC130860002016
:1019F000DFF8F81308602A20DFF8F41308700020DD
:101A0000DFF8F01308600120DFF8E8130860012018
:101A1000DFF8D81308600120DFF8C8130860012040
:101A2000DFF8C41308600020DFF8C013086000204E
:101A3000DFF8BC1308700020DFF8B813086001203D
:101A4000DFF8B01308600120DFF8A0130860012060
:101A5000DFF8901308600120DFF88C130860002085
:101A6000DFF8881308600220DFF884130870002074
:101A7000DFF8801308600120DFF878130860012088
:101A8000DFF8681308600120DFF8581308600120B0
:101A9000DFF8541308600020DFF8501308600020BE
:101AA000DFF84C1308700020DFF8481308600120AD
:101AB000DFF8401308600120DFF8301308600120D0
:101AC000DFF8201308600120DFF81C1308600020F5
:101AD000DFF8181308608120DFF814130870002065
:101AE000DFF8101308600120DFF8081308600120F8
:101AF000DFF8F81208600120BA4908600020BA49EE
:101B000008600020B94908602B20B94908700020FE
:101B1000B84908600120B74908600120B34908604E
:101B20000120B04908600120AF4908600020AF499A
:101B300008600020AE4908700020AE49086001200E
:101B4000AC4908600120A94908600120A549086046
:101B50000120A54908600020A44908600320A44989
:101B600008700020A34908600120A24908600120F4
:101B70009E49086001209B49086001209A4908603D
:101B800000209A490860002099490870002099496E
:101B900008600120974908600120944908600120ED
:101BA0009049086001209049086000208F49086032
:101BB00082208F49087000208E49086001208D49DD
:101BC00008600120894908608020DFF85C140880E3
:101BD0008020DFF85814088002E101208149086064
:101BE0000020814908600020804908603620804933
:101BF000087000207F49086001207E4908600120AC
:101C00007A49086001207749086001207649086018
:101C100000207649086068207549087000207549E1
:101C200008600120734908600120704908600120A4
:101C30006C49086000206C49086000206B4908600E
:101C40002A206B49087000206A4908600120694910
:101C50000860012065490860012062490860012090
:101C600061490860002061490860002060490870EF
:101C700000206049086001205E49086001205B493E
:101C8000086001205749086001205749086000207A
:101C900056490860032056490870002055490860DD
:101CA00001205449086001205049086001204D4935
:101CB000086001204C49086000204C490860002061
:101CC0004B49087000204B490860012049490860D1
:101CD000012046490860012042490860012042492C
:101CE00008600020414908608220414908700020B6
:101CF0004049086001203F49086001203B490860D5
:101D00000120384908600020374908600020374921
:101D100008602B20364908700020364908600120F1
:101D20003449086001203149086001202D490860CC
:101D300001202D49086000202C49086000202C4912
:101D4000087000202B49086001202A490860012002
:101D500026490860012023490860012022490860C3
:101D600000202249086002202149087000202149F2
:101D7000086001201F49086001201C4908600120FB
:101D800018490860012018490860002017490860B8
:101D900000201749087000201649086001201549E5
:101DA000086001201149086001200E4908600120E7
:101DB0000D49086000200D49086081200C49087019
:101DC00000200C49086001200A49086001200749E9
:101DD0000860802094490880802094490880FFE7AB
:101DE00010BD00002810FE433010FE432C10FE43AF
:101DF00080F00F402410FE4303B489480078C007E8
:101E00000AD5BDF80000C01CADF80000BDF8020006
:101E1000801CADF8020009E0BDF80000801CADF8A0
:101E20000000BDF80200C01CADF80200012080498E
:101E3000086000207F49086000207F4908602A2050
:101E40007E49087000207E49086001207C490860B6
:101E50000120794908600120754908600120754911
:101E60000860002074490860BDF8000080B2000AD4
:101E700072490870002072490860012070490860AA
:101E800001206D4908600120694908600120694905
:101E90000860002068490860BDF8000067490870C4
:101EA00000206749086001206549086001206249F7
:101EB000086001205E49086001205E49086000203A
:101EC0005D490860BDF80000BDF8041011FA80F00B
:101ED000401E00125949087000205949086001202D
:101EE00057490860012054490860012050490860A2
:101EF00001205049086000204F490860BDF80000EB
:101F0000BDF804100818401E4C49087000204C49C8
:101F1000086001204A490860012047490860012003
:101F20004349086000204349086000204249086096
:101F30002B20424908700020414908600120404997
:101F4000086001203C4908600120394908600120EF
:101F500038490860002038490860BDF8020080B2A6
:101F6000000A3649087000203549086001203449CC
:101F7000086001203049086001202D4908600120D7
:101F80002C49086000202C490860BDF802002B494C
:101F9000087000202A4908600120294908600120B2
:101FA0002549086001202249086001202149086074
:101FB000002021490860BDF80200BDF8061011FAA2
:101FC00080F0401E00121D49087000201C49086066
:101FD00001201B49086001201749086001201449AD
:101FE0000860012013490860002013490860BDF80B
:101FF0000200BDF806100818401E104908700020A5
:102000000F49086001200E49086001200A49086054
:1020100002B0704704480088704704480088704741
:10202000900EFF1FE8600000EC0BFF1FEE0BFF1F80
:102030002810FE433010FE432C10FE4380F00F406A
:102040002410FE4370B504000D0016004FF480719B
:102050002000C0B200F08EF86DB2002D11D14348BF
:10206000E4B2611150F821004049E4B2621151F824
:1020700022104969012214F01F039A4091434161E3
:1020800036E03A48E4B2611150F821003749E4B231
:10209000621151F822104969012214F01F039A407D
:1020A00011434161F6B2002E11D13048E4B2611102
:1020B00050F821000068012114F01F02914088436C
:1020C0002A49E4B2621151F82210086010E0274852
:1020D000E4B2611150F821000068012114F01F02E0
:1020E000914008432149E4B2621151F8221008607E
:1020F00070BD10B504001D48E4B2611150F8210014
:10210000406914F01F010200CA40D00703D47B21AC
:10211000174800F0CEF81548E4B2611150F82100DC
:10212000012114F01F029140C16010BD10B50400E0
:102130000E48E4B2611150F82100406914F01F010B
:102140000200CA40D00703D58C21094800F0B1F83D
:102150000648E4B2611150F82100006914F01F0133
:102160000200CA4012F0010010BD0000480BFF1F22
:10217000DC61000010B4294A12684FF40073C0B249
:102180004409A3401A43254B1A60254AC0B24311A3
:1021900052F82320012310F01F04A340C2F8A030FE
:1021A0001F4AC0B2431152F82320C0B210F01F03DF
:1021B00042F8231010BC704710B4184A12684FF44C
:1021C0000073C0B24409A3401A43144B1A60144A66
:1021D000C0B2431152F82320012310F01F04A34082
:1021E000C2F8A03031F4E0610D4AC0B2431152F898
:1021F0002320C0B210F01F0352F8232012F4E06233
:102200001143074AC0B2431152F82320C0B210F064
:102210001F0342F8231010BC7047000038800440B0
:10222000B80BFF1F10B50400002C15D0B4F1807F4F
:1022300003D329210F4800F03CF800200E49086024
:102240000E48046000200E49086005200A49086015
:1022500009480068C003FBD510BD10B5040020007C
:10226000441E002804D007480068FFF7DBFFF6E7AC
:1022700010BD00001462000010E000E014E000E077
:1022800018E000E0340EFF1FDFF800F0650CFF1FC0
:10229000DFF800F0890CFF1FBFF34F8F464800683E
:1022A00010F4E0604549084343490860BFF34F8F8D
:1022B000FEE738B504000D00002000F08DF82A007C
:1022C00021003F4800F0C0F8002000F0A2F84FF4D1
:1022D0007A70FFF7C2FFF2E738B504000D00210065
:1022E00049B2032000F0CCF9200032BD10B5002423
:1022F000042000F0DFF9042000F012FA002841D198
:10230000002000F069F8042000F00AFA012801D149
:1023100001200400002000F07CF82A4800F094F826
:102320004FF4FA70FFF799FFE4B2012CEBD10420CF
:1023300000F0F6F90028E6D1042000F0F1F90028B9
:1023400006D1002000F065F86420FFF786FFF3E770
:10235000042000F0E5F9012806D1002000F059F82A
:102360003220FFF77AFFF3E7174800F06DF8FFF728
:102370008BFF6420FFF771FF0020FFF789FFFFF755
:102380008BFFC0E710BD10B510480468012000F0B5
:1023900023F8012000F03DF80D48E4B20F2101FBC5
:1023A0000402E4B221000B4800F04EF84FF47A70BA
:1023B000FFF753FFEDE700000CED00E00400FA0525
:1023C00044630000F86300007863000004ED00E05F
:1023D0003004FF1F6861000010B5040064B2042CD3
:1023E00007DA01220121174864B2205CFFF72AFEB8
:1023F0000EE0042004002000441E40B2002807D054
:10240000012201210F4864B2205CFFF71BFEF2E7B6
:1024100010BD10B5040064B2042C05DA094864B29A
:10242000205CFFF766FE0CE0042004002000441E40
:1024300040B2002805D0034864B2205CFFF759FE83
:10244000F4E710BDF00BFF1F0EB400B582B003A976
:102450000091024600AB0121034878440A3000F0A5
:1024600077F906BC5DF810FB6D3F00002DE9F843DD
:1024700004000D0064B2002C08D0022C2CD018D31C
:10248000042C4FD03BD3052C5FD071E0DFF80C0259
:10249000006850F48060DFF8041208604FF4407167
:1024A0006620FFF767FE4FF440716720FFF762FE7A
:1024B0005EE0DFF8E801006850F40060DFF8DC114E
:1024C00008604FF440714320FFF754FE4FF4407111
:1024D0004420FFF74FFE4BE0DFF8C001006850F4E6
:1024E0008050DFF8B81108604FF440716320FFF7A7
:1024F00041FE4FF440716220FFF73CFE38E0DFF808
:102500009C01006850F40050DFF8901108604FF40F
:1025100040715020FFF72EFE4FF440715120FFF71D
:1025200029FE25E0DFF87801006850F48060DFF8CC
:10253000701108604FF440714E20FFF71BFE4FF4FE
:1025400040714F20FFF716FE12E0DFF854010068DB
:1025500050F40060DFF8481108604FF440718920A2
:10256000FFF708FE4FF440718820FFF703FEFFE7F6
:10257000DFF8300164B250F82400C07810F0F300A6
:10258000DFF8201164B251F82410C870DFF814018C
:1025900064B250F824008078DFF8081164B251F872
:1025A0002410887064B2002C02D064B2012C07D1D0
:1025B000DFF8F40000684FF47A714843814606E082
:1025C000DFF8E80000684FF47A714843814628013B
:1025D000B9FBF0F00600B6B2B6F5005F02DB41F6DB
:1025E000FF700600B9FBF5F0B6B2B0EB06100700BD
:1025F000BFB2202F03DBDC212D48FFF75AFE29480C
:1026000064B250F82400007810F0E0008046C6F371
:10261000042050EA0800234964B251F824100870DD
:10262000204864B250F8240046701E4864B250F846
:102630002400807A10F0E000804617F01F0050EA76
:102640000800184964B251F824108872154864B221
:1026500050F82400007C50F08800124964B251F810
:10266000241008740F4864B250F82400C07850F069
:102670000C000C4964B251F82410C870BDE8F18315
:10268000084A40B252F8202012791206F8D5054ABD
:1026900040B252F82020D1717047000034800440CD
:1026A00028800440CC0BFF1F340EFF1F3C0EFF1F81
:1026B0004C62000010B5040064B2082C0DDA002250
:1026C0000021224864B2205CFFF7BCFC03211F48B4
:1026D00064B2205CFFF770FD14E0082004002000C5
:1026E000441E40B200280DD000220021174864B2D9
:1026F000205CFFF7A7FC0321144864B2205CFFF7BD
:102700005BFDECE710BD10B50400104864B2205C1E
:10271000FFF70CFD002801D1002000E0012010BDD2
:1027200010B50400200040B2FFF7EDFF00280AD1E9
:102730000A20FFF792FD200040B2FFF7E4FF0028D7
:1027400001D1002000E0012010BD0000E40BFF1FBC
:102750002DE9F04FA1B08046002017461D4602919A
:102760000B900DF1440A6FF000490AE017F8011BC5
:102770000298C0470028029000F0A5820B98401CE8
:102780000B90387808B90B989FE22528EED10020ED
:10279000059006900790089009900A9001E040F09B
:1027A000010017F8011F2029F9D023290DD02B296A
:1027B00004D02D2906D030290AD00CE040F00200C8
:1027C00080B2EEE740F00400FAE740F00800F7E7D7
:1027D00040F01000F4E72A290ED12968296051F849
:1027E000042B2960002A0D9204D5514240F00400C8
:1027F0000D9180B27F1C11E000210D9109E00D992F
:10280000494505D001EB810302EB430130390D91BD
:102810007F1C3A78A2F130010A29F0D339782E29A9
:1028200003D04FF0FF310C911DE017F8011F2A294A
:1028300007D1296829607F1C51F8042B29600C926C
:1028400011E000210C9109E00C99494505D001EBFC
:10285000810302EB430130390C917F1C3A78A2F1DD
:1028600030010A29F0D3ADF838000FF6C0203978CE
:1028700000F06AFD08B117F8010B8DF83A009DF8D9
:102880003A00682802BF39786829622005D06C2890
:1028900004BF38786C2803D171208DF83A007F1C72
:1028A00011A8049017F8014BB4F1250023D020386B
:1028B000022840F2BB80133800F0E0800B3800F0B3
:1028C0004A81401E00F02381401E022840F2AE8063
:1028D000001F00F01C81401F79D0401E00F0CE8008
:1028E000401E24D0C01E0BD0801E00F0C780C01E2A
:1028F00000F0C48039E125208DF8440001203DE13D
:102900002868286050F8046B286003960C9C002C03
:1029100004D5304600F024FD044606E0224600219E
:10292000304600F039FD00B1841B069427E1296888
:1029300029603C2451F8040B29600021CDE90001F5
:1029400011A80390DDE90001049E11B908B90C9AA1
:10295000B2B10206120FA0EB02123032D2B2631EE5
:102960003A2AA8BF2732000940EA017009099A559E
:1029700008BF00281C4603D0039AA3199A42E8D343
:10298000A0190390C4F13C010C980691814209DA28
:10299000401A08904FF6EF71BDF838000840ADF8C6
:1029A0003800ECE0002840F1EA809DF8380000F0A3
:1029B0001400102840F0E3800D98059A801A089AB8
:1029C000801A441A012CC0F2DA800894D7E09DF8EE
:1029D0003A0062281AD0682806D06A280CD06C28E1
:1029E0001CD0712808D019E02868286050F8041B12
:1029F00028600B980880C2E02868286050F8042BF3
:102A000028600B98C117C2E90001B8E02868286067
:102A100050F8041B28600B980870B0E02868286004
:102A200050F8041B28600B980860A8E02868C01DB7
:102A300020F007022A60D2E9000108322A60CDE9BD
:102A40000001002902D505982D210AE0BDF83800C3
:102A5000810702D505982B2103E0C00705D505980D
:102A6000202100F80A10401C059011A805990818AB
:102A70000390214600A800F0E5F980E09DF83A00B7
:102A80006C280DD0712818BF6A2809D12868C01D8C
:102A900020F007022A60D2E9000108322A6005E02E
:102AA0002968296051F8040B29600021CDE9000153
:102AB0009DF83A00682803D1DDE9000180B20BE0FF
:102AC000622803D1DDE90001C0B205E0742818BF17
:102AD0007A2804D1DDE900010021CDE900019DF84B
:102AE000380000072ED5DDE90001002908BF0028C5
:102AF00028D044F02000782824D10598302100F80F
:102B00000A10401C411C059100F80A401AE09DF88B
:102B10003A00294600F0DCF8CDE90001002902DA8C
:102B200005982D210AE0BDF83800810702D50598E7
:102B30002B2103E0C00705D50598202100F80A10D5
:102B4000401C059011A8059908180390214600A87B
:102B500000F0F5F813E0012005902868286050F88F
:102B6000041B28608DF8441009E025208DF84400EE
:102B7000012005901CB18AF80140022005900D98B3
:102B80000599401A0899401A0699401A0999401A5D
:102B90000799401A0A99441A9DF83800400710D442
:102BA00020208DF84000002609E0012310AA00A98A
:102BB000404600F0A3FB002840F08580761CA6422A
:102BC000F3DB059E0DF1440B0AE01BF8011B029894
:102BD000C0470028029076D00B98401C0B90761EC0
:102BE000002EF2D130208DF840004FF0000B089EEF
:102BF00009E0012310AA00A9404600F07FFB00284D
:102C000061D10BF1010BB345F3DB069EDDF80CB08F
:102C10000AE01BF8011B0298C0470028029052D01E
:102C20000B98401C0B90761E002EF2D130208DF8B0
:102C300040004FF0000B099E09E0012310AA00A9F3
:102C4000404600F05BFB00283DD10BF1010BB34582
:102C5000F3DB03980699079E01EB000B09E01BF8D4
:102C6000011B0298C047029068B30B98401C0B9060
:102C7000761E002EF3D130208DF840004FF0000B6F
:102C80000A9E08E0012310AA00A9404600F036FB86
:102C9000C8B90BF1010BB345F4DB9DF838004007D0
:102CA0007FF56FAD20208DF84000002600E0761CF7
:102CB000A642BFF666AD012310AA00A9404600F067
:102CC0001DFB0028F3D04FF0FF3021B0BDE8F08F9E
:102CD000622826D068281DD06A2808D06C2827D002
:102CE000712804D0742823D07A280CD020E00868FA
:102CF000C01D20F007000860D0E9002308300860FC
:102D00001946104670470A680A6052F8040B0A60B8
:102D1000002170470A680A6052F8040B0A6000B28A
:102D20000BE00A680A6052F8040B0A6040B204E043
:102D30000A680A6052F8040B0A60C11770472DE94F
:102D4000FA4E05460A462F696F2A08BF082405D0A7
:102D500041F02000782814BF0A2410243C26D5E92D
:102D60000001642A18BF692A81468A4605D10029D4
:102D700003DAD9F100096AEB4A0ABAF1000F08BF79
:102D8000B9F1000F0CD1286B50B9082C36D195F849
:102D90003800000732D530203B2687F83B002DE075
:102DA000E31748465146224600F022FBA4FB0023CD
:102DB000A9EB02023032D2B2A6F1010B3A2A5E46EA
:102DC00003DB9DF80030513B9A1881465FEA010A07
:102DD0000BF8072008BFB9F1000F03D0E868F1191C
:102DE0008842DDD3082C09D195F83800000705D5B5
:102DF000F05D302802D0761E3020F055C6F13C0040
:102E0000A861F119E960296B884208DA081A28627A
:102E10004FF6EF71288F08402887BDE8F38E002910
:102E20000ED595F8381001F01401102908D1696BFE
:102E30006A69891A2A6A891A0E1A012EA8BF2E6297
:102E4000BDE8F38E2DE9F34F8BB0D0E90089006B1C
:102E5000002801AF48BF062005D404BF41F0200080
:102E6000672802D101200B99086340F2FF720B988A
:102E70004168C1F30A50904220D1080302BF0B9869
:102E8000006800280AD10B99032088619DF8300062
:102E900061381A2858D30FF2A84109E00B99032092
:102EA00088619DF8300061381A284AD30FF28841B2
:102EB0000B98C068032200F013FB00E1012807DA39
:102EC0000B9800F048FB012802DB00230026EDE010
:102ED0000B9ADFF854B1526840F2FE3161F31E5292
:102EE0000B994A6040F2FE31461A4046494600229C
:102EF000002300F051FB38BF89F0004936B247F299
:102F000097507043494990FBF1F636B2C6F1070776
:102F1000012F92461BDBF80707D552465B46404619
:102F2000494600F051FB8046894650465946524674
:102F30005B467F1000F048FB002F82468B46EAD1AB
:102F400026E00FF2F031B3E70FF2F031B0E77F4245
:102F50000024374D12E0F80707D552465B4620465D
:102F6000294600F031FB04460D465046594652466C
:102F70005B4600F029FB7F1082468B46002FEAD18A
:102F80004046494622462B4600F0F0FB80468946E3
:102F90009DF830000B99DFF89CB0096B40F02005DC
:102FA000662D0CBF06F10A0006204718142FA8BF93
:102FB000132730208DF804000DF10504012F3BDBB1
:102FC0004046494600F0FEFC014604F10802042395
:102FD0004FF00A0CB1FBFCFC0CEB8C04A1EB4401A0
:102FE000303102F8011C0A21BCFBF1FE0EEB8E040D
:102FF000ACEB440430345B1E714602F8024DE7D15D
:10300000083F012F02F10804D8DB00F0F1FC024672
:103010000B464046494600F0F9FC00225B4600F0B2
:10302000D3FA80468946CBE700002440A086010001
:103030000000F03F84D797410DF10500201A0DF1F3
:10304000050702E0401E761E7F1C39783029F9D032
:10305000662D02D136B2711C03E0652D0CBF012133
:1030600000210B9A126B8B181BB29842B8BF034613
:103070001BB219001AD4814204DAC85D3528A8BFF2
:10308000392000DA3020CA19521E00E05B1E12F807
:103090000159491E8542F9D0392802D1C85D401C2A
:1030A000C855002902D57F1E5B1C761C36B29DF8E0
:1030B00030100B9800961BB23A4600F003F80DB0A2
:1030C000BDE8F08F2DE9F04786B006468A46904667
:1030D0001D4600F078FD012D406A376B90F8009096
:1030E00002DA01250FF25C284AF02000BDF93840D1
:1030F000662808BF641C13D0672840F0888014F14C
:10310000040F73DBBC4271DA96F83800641C0007C8
:1031100002D4BD42B8BF2F4624B23F1B48BF002790
:1031200024B2F068B169012C21DA4A1C30230B5417
:10313000012F03DA96F83810090702D502F800903B
:10314000521CE742B8BF7C4224B2E7196142AF4249
:10315000B2617162B8BF3D46B3692DB2F5612A46CE
:103160004146181800F0BCF9781BB062AFE00818AF
:10317000A54216DA2A46414600F0B2F9B16969184B
:10318000601B012FB161706203DA96F83800000706
:1031900005D5F06801F80090F069401CF061B76255
:1031A00095E02246414600F09BF9B06920182D1B9E
:1031B000012F03DA96F83810090703D5F16800F8F3
:1031C0000190401CB0612DB2AF42B8BF3D46F068DF
:1031D000B3692DB22A4604EB0801181800F080F9F3
:1031E000B0692818B061781B706270E0BD4204DAE3
:1031F00096F83810090758BF2F467F1E48BF002792
:10320000BAF1670F0CBF4FF0650A4FF0450AB1697C
:10321000F06818F8013B0B544A1C012F05DA96F8A8
:103220003810090758BFB26115D502F80090531C39
:10323000012FB3610FDB6D1E2DB2AF42B8BF3D460B
:103240002DB22A464146181800F04AF9B0692818EC
:10325000B061781B7062F068B1690918200081F8CC
:1032600000A004D42B20487001F1020804E02D22B4
:103270004A7001F102086442002502AF08E00A2208
:1032800000A800F0B9FC019807F8010B6D1C009C28
:1032900021B20129F3DA022D06DA4AF0200065286E
:1032A00004BF302008F8010B4DB9302008F8010B9D
:1032B00007E06D1E02A8285C303008F8010B012DD4
:1032C000F7DAF068B1690818A8EB0000F06196F829
:1032D000380000F0140010280DD17069B169081889
:1032E000716A0818F1690818B16A0818716B884288
:1032F000BCBF081A306206B0BDE8F087F8B50446D6
:103300000D4616461F46002004E0E86A401CE862AD
:103310007F1E002047B116F8011BA868A0470028AF
:10332000A860F2D14FF0FF30F2BD0000686A6C7403
:103330007A4C00006E616E004E414E00696E660070
:10334000494E4600300000000278C9B28A421AB1E4
:103350001CBF10F8012FF9E718BF002070470000CC
:1033600000F10103810704D010F8011B89B1810726
:10337000FAD10268B2F10131914311F0803F04BFEC
:1033800050F8042FF6E710F8011B11B110F8011BDB
:10339000FBE7C01A70470000C9B2830706D0521E6F
:1033A00022D310F8013B9942F7D11FE0083A13D31A
:1033B00002F1040241EA012141EA014150F8043BD3
:1033C000121F21BF4B40A3F1013C2CEA030C1CF05F
:1033D000803FF3D0C9B2001F083210F8013B521EE3
:1033E00028BF91EA030FF8D818BF0120401E70478C
:1033F0001B4213D1094236D12AB18446B0FBF2F008
:1034000002FB10C2704700F0FFBBFCD30022002378
:1034100070470B000200002100207047904271EBC2
:10342000030CF6D370B5B1FA81F4B3FA83F52C1B13
:10343000A340C4F1200532FA05F63343A2405FF001
:103440000046E64002E05B085FEA3202841A71EB54
:10345000030524BF204629467641F4D302000B0021
:103460003000002170BD012ACFD970B5140C20D0D6
:10347000B1FA81F4B2FA82F5C4F120046419B4F10E
:103480002006D6D3B2405FF00044F440002502E0AD
:1034900052085FEA3303C61A71EB020E24BF3046AE
:1034A000714664416D41F3D302000B0020002900F6
:1034B00070BD0C46B1FBF2F102FB11452D0445EA4B
:1034C0001045B5FBF2F402FB145580B240EA054505
:1034D000B5FBF2F002FB105240EA044070BD000060
:1034E00062B38B0708D0521E11F8013B00F8013B74
:1034F00000F024808B07F6D1830740F0208000BFC6
:10350000103A07D330B4B1E83810103AA0E83810B8
:10351000F9D230BC530724BFB1E80810A0E8081066
:1035200044BF51F8043B40F8043BD20724BF31F8B4
:10353000022B20F8022B44BF0B7803707047083A27
:1035400007D3B1E80810083A40F8043B40F804CB30
:10355000F7D25307E4E730B4436803F00042012197
:103560001B031B0B436004BF0368002B08D10DE055
:103570000368DD0F45EA440444605B000360491EB4
:103580004468E302F4D523031B0B436043681A43EA
:103590004260084630BC70474FF4001C1CEB410FE2
:1035A00094BF1CEB430F09E041EA030C50EA4C0CBA
:1035B00052EA0C0C03D2994208BF9042704714BFE4
:1035C0008B42824270470000B0B581EA030C0CF0D8
:1035D000004C40F2FF7515EA11541DBF15EA135750
:1035E000AC42AF4239E0E41923EA455343F4801377
:1035F000C90241F0004141EA505EC7021100A7FB39
:10360000020200284FF00000EEFB01204FF0000105
:10361000E3FB072118BF42F0010240180021494195
:10362000E3FB0E01A4F580640F0302D25200404177
:10363000494154F101046CDD470872F1004250F138
:10364000000051EB0451A1F580115CBF41EA0C016F
:10365000B0BD4CEA05510020B0BD05EA1357AC429D
:1036600014BFAF4241E050EA410E1CBF52EA430E84
:1036700002E061460020B0BD24423C441BD15FEA19
:10368000070EF6D0090302BF01460020AEF1140E6A
:10369000B1FA81F7AEEB070401FA07FE0C37C7F168
:1036A000200100FA07F7C8404EEA000E23EA45530E
:1036B00043F48013A2E733F00043B3FA83F704BF67
:1036C000B2FA82FE77440B3FE41BB7F1200E2FBF06
:1036D00002FA0EF3BB40C7F1200E22FA0EFE38BFED
:1036E00043EA0E03BA40641C82E750EA410E14BF5D
:1036F00052EA430E6FF000014FF4001717EB430F2F
:103700008ABF194617EB410FB5E74CEA0551002077
:10371000B0BDD4F10104B4F120070FDAC4F12007E1
:10372000520828BF42F0010210FA07F501FA07F724
:10373000E1BF2A43E0403843E1400FE0352C98DCFC
:10374000C7F1200452EA400220FA07F218BF42F003
:10375000010231FA07F0A1400A43002172F1004250
:1037600050F1000051EB0C01B0BD00002DE9F0411B
:1037700040F2FF7581EA030C0CF0004C15EA11547D
:103780001DBF15EA1357AC42AF42E9E0BC41C1F39B
:103790001301C3F31303801A994143F4801304D235
:1037A000641E4000494180185941C90241EA505104
:1037B000B1FBF3F603FB1611A2FB0675D7EBC02095
:1037C000A94102D2761E80185941C90241EA5051DE
:1037D000B1FBF3FE03FB1E11A2FB0E75D7EBC0205D
:1037E000A94103D2AEF1010E80185941890241EA84
:1037F0009051760546EA8E2EB1FBF3F603FB1611C7
:10380000A2FB0675D7EB8020A94102D2761E801854
:103810005941C90241EA50514EEA060EB1FBF3F696
:1038200003FB1611A2FB0675D7EBC020A94102D2FB
:10383000761E80185941C90241EA5051B1FBF3F795
:1038400003FB1711A2FB0735D3EBC020A94167F199
:1038500000070CBF004247F0010766F3D5274FEA87
:103860001E31B80814F5806414DDBD0775F10042FF
:1038700050EB0E5051EB045111F5801F5CBF41EA33
:103880000C01BDE8F0814CF07F6141F0E041002087
:10389000BDE8F081BD076D0840EA0E5041F480118B
:1038A000D4F10104B4F120060ADAC4F120060200C2
:1038B000E04001FA06F3E1401843B24015430EE040
:1038C000342C14DCC6F1200445EA40056D0820FACA
:1038D00006F2154321FA06F0A1400D43002175F1CF
:1038E000004250F1000051EB0C01BDE8F0810020D6
:1038F0005FEA0C01BDE8F081CFB992185B41B3FAE1
:1039000083F704BFB2FA82F6BF190B3FB7F1200666
:103910002FBF02FA06F3BB40C7F1200622FA06F6D3
:1039200038BF3343BA401CB1E419641E2FE77F420D
:1039300031F00041B1FA81F404BFB0FA80F6A41965
:103940000B3CB4F120062FBF00FA06F1A140C4F1F0
:10395000200620FA06F638BF3143A0403C1B16E78C
:10396000AC421ABF05EA1357AF4214E050EA4106D1
:103970001CBF52EA4306BFE750EA410730466146A2
:103980001CBF41EA0551BDE8F08152EA430C08BF73
:10399000C143BDE8F08100204FF4001616EB410F43
:1039A00098BF16EB430F08BF16EB410F24BFC1436E
:1039B00005E016EB430F0CBF61464CEA0551BDE82C
:1039C000F0810000400D40EAC120490080F00D80E8
:1039D00040F00040490DA1F58061491C05D4D1F1AA
:1039E0001F0154BFC840C01770474FF00000704718
:1039F000010000BF09D0B0FA80F18840C91CC1F5B0
:103A00008461090501EBD02140057047F0B44FF007
:103A1000004591EA030F44BF6B4000F0F7B800BFC8
:103A2000841A71EB030604D26E40001BB1411219D7
:103A300073414FF4001C1CEB410F34BF7CEB430679
:103A400084E00C0DA4EB1356362E7DDC012E43DCF6
:103A500045EAC32343EA525312BFD20292025B08E3
:103A6000240545EAC12141EA5051D2EBC0209941D9
:103A700025D407D1B0FA80F610FA06F164D0002000
:103A8000203608E0B1FA81F6B140C6F1200220FAF2
:103A900002F21143B0404FEAF474B4EB465434F0F0
:103AA00001064FEA74040AD8D6F50016760D04F024
:103AB0000044F04061FA06F25040F1404840C00A2C
:103AC00040EA415021F0004128BF5FEA500550F123
:103AD000000044EBD12137E045EAC323DB0A45EA85
:103AE000C121C90AB6F120050EDD42EA0242120CDC
:103AF000C5F1200603FA06F6EB4042EA06056D42E0
:103B0000984161F100010DE062FA06F5F24055407E
:103B100063FA06FC82EA0C02F3405A406D4290417F
:103B200061EB030111F4801F05D1641E620502D010
:103B30006D004041494121F48011430875F1004373
:103B400050F1000041EB0451F0BC70471CEB410FF9
:103B500015D223F0004352EA43060BD04FEA4C0C37
:103B6000BCEB410F04D80C0D661E342EB7DDEBE71D
:103B7000801A994150EA410608BF0021E4E708BFD6
:103B80001CEB430F28BF6FF00001DDE780B5134841
:103B900000F0A6F80FF24C020FF2440101604262FD
:103BA00041600FF24402826381600FF24402C160FF
:103BB0000161416181618162C16201634163C263EC
:103BC0000164416401BD10B5044800F089F8044661
:103BD000206808B9FFF7DAFF204610BD940EFF1FDA
:103BE000000000002E00000066616C73650000009C
:103BF000747275650000000091FBF2F303FB121173
:103C0000C0E900317047000070470000841A71EB72
:103C1000030603D2001BB141121973414FF4001C7B
:103C20001CEB410F34BF7CEB430443E00C0DA4EBD1
:103C30001356352E50DC45EAC323DB0A45EAC12181
:103C4000C912B6F120050DDD63FA05F6EB4086EAF0
:103C50000305124218BF45F00105C01851F10001DB
:103C60000CD213E062FA06F5F2405540F3415A4097
:103C7000B340F3405A408018594107D349085FEADE
:103C800030005FEA350528BF45F0010501F58011D8
:103C9000420875F1004250F1000041EB0451F0BCC4
:103CA0004FF4001C1CEB410F38BF70470020090D7A
:103CB000090570471CEB410F10D252EA43060BD0A6
:103CC000BCEB410F05D80C0DAB43661E342EB5DDA1
:103CD00002E0AB4380185941F0BC7047F0BC70471C
:103CE000704700000A0046000A0055008E000000E0
:103CF00094000000020000001100000000B003402A
:103D000000B00B40000000000000000000000000B8
:103D100000000000000000000000000000000000A3
:103D200000004E6F6E4D61736B61626C6500000048
:103D300000486172644661756C7400000000000008
:103D40004D656D4D616E6167656D656E7400004215
:103D500075734661756C74000000000000005573B7
:103D60006167654661756C7400000000000000002A
:103D70000000000000000000000000000000000043
:103D80000000000000000000000000000000000033
:103D90000000000000000000000000000000000023
:103DA000000000000000000000535643616C6C00EE
:103DB000000000000000000044656275674D6F6EF2
:103DC00069746F7200000000000000000000000035
:103DD00000000000000050656E64535600000000B3
:103DE00000000000005379735469636B0000000009
:103DF00000000000444D41300000000000000000C1
:103E0000000000444D4131000000000000000000AF
:103E10000000444D4132000000000000000000009E
:103E200000444D413300000000000000000000008D
:103E3000444D413400000000000000000000004438
:103E40004D41350000000000000000000000444D1E
:103E500041360000000000000000000000444D4119
:103E6000370000000000000000000000444D413811
:103E70000000000000000000000000444D41390037
:103E800000000000000000000000444D41313000FF
:103E9000000000000000000000444D4131310000EE
:103EA0000000000000000000444D413132000000DD
:103EB00000000000000000444D41313300000000CC
:103EC000000000000000444D4131340000000000BB
:103ED0000000000000444D413135000000000000AA
:103EE00000000000444D415F4572726F7200000097
:103EF0000000004D434D00000000000000000000E5
:103F000000004654464C0000000000000000000085
:103F100000526561645F436F6C6C6973696F6E001A
:103F20004C56445F4C565700000000000000004C07
:103F30004C57000000000000000000000000576126
:103F4000746368646F6700000000000000524E4711
:103F50000000000000000000000000004932433073
:103F60000000000000000000000000493243310062
:103F70000000000000000000000053504930000025
:103F80000000000000000000005350493100000014
:103F90000000000000000000535049320000000003
:103FA0000000000000000043414E305F4F525F4D63
:103FB000425F6275660043414E305F4275735F4FEA
:103FC000666600000043414E305F4572726F7200BA
:103FD0000000000043414E305F54785F5761726EBD
:103FE000696E6743414E305F52785F5761726E6908
:103FF0006E6743414E305F57616B655F55700000DF
:10400000005265736572766564353100000000000A
:1040100052657365727665643532000000000043B6
:10402000414E315F4F525F4D425F627566004341C2
:104030004E315F4275735F4F666600000043414E2C
:10404000315F4572726F72000000000043414E31D3
:104050005F54785F5761726E696E6743414E315F9E
:1040600052785F5761726E696E6743414E315F5798
:10407000616B655F5570000000526573657276650F
:10408000643539000000000052657365727665641E
:104090003630000000000055415254305F52585FE6
:1040A00054580000000055415254305F45525200B0
:1040B000000000000055415254315F52585F54587F
:1040C0000000000055415254315F4552520000003B
:1040D00000000055415254325F52585F545800005E
:1040E000000055415254325F45525200000000001A
:1040F0000055415254335F52585F5458000000003D
:1041000055415254335F45525200000000000055A3
:10411000415254345F52585F5458000000005541DA
:104120005254345F45525200000000000055415285
:1041300054355F52585F54580000000055415254A6
:10414000355F4552520000000000004144433000FA
:104150000000000000000000000041444331000066
:10416000000000000000000000434D50300000003F
:104170000000000000000000434D5031000000002E
:1041800000000000000000434D503200000000001D
:1041900000000000000046544D3000000000000008
:1041A000000000000046544D3100000000000000F7
:1041B0000000000046544D320000000000000000E6
:1041C000000000434D54000000000000000000000B
:1041D00000005254430000000000000000000000F6
:1041E0000052657365727665643833000000000024
:1041F0005049543000000000000000000000005052
:104200004954310000000000000000000000504947
:10421000543200000000000000000000005049542B
:104220003300000000000000000000005044423055
:104230000000000000000000000000555342300064
:1042400000000000000000000000555342444344B9
:10425000000000000000000000454E45545F31356D
:1042600038385F54696D6572454E45545F547261CC
:104270006E736D69740000454E45545F5265636509
:10428000697665000000454E45545F4572726F7255
:104290000000000000493253300000000000000020
:1042A00000000000534448430000000000000000EC
:1042B0000000004441433000000000000000000006
:1042C00000004441433100000000000000000000F5
:1042D00000545349300000000000000000000000BE
:1042E0004D43470000000000000000000000004CAB
:1042F0005054696D657200000000000000005265B6
:1043000073657276656431303200000000504F52A0
:10431000544100000000000000000000504F5254C3
:104320004200000000000000000000504F525443C3
:1043300000000000000000000000504F52544400F4
:10434000000000000000000000504F5254450000E3
:10435000000000000000000052657365727665641D
:104360003130380000000052657365727665643143
:104370003039000000005265736572766564313132
:10438000300000000052657365727665643131312A
:104390000000000052657365727665643131320049
:1043A0000000005265736572766564313133000038
:1043B0000000526573657276656431313400000027
:1043C0000052657365727665643131350000000016
:1043D00052657365727665643131360000000052B3
:1043E000657365727665643131370000000052658F
:1043F0007365727665643131380000000052657370
:104400006572766564313139000000000080034038
:104410000090034000800B4000900B4000F00F40E4
:1044200040F00F4080F00F40C0F00F4000F10F400F
:1044300066000A1D32000701640007106E000406C2
:10444000780004088200040A8C00040C9600040E14
:10445000A0000410AA000412B4000414BE00041644
:10446000C8000418D200041ADC00041CE100041D7A
:10447000E600041EEB00041FF4000317FA00031803
:10448000130101062C0102140001090800900440E8
:1044900000A0044000B0044000C0044000D004402C
:1044A00000A0064000B0064000C0064000D0064014
:1044B00000A00E4000B00E406A6E6B6C676D4E4FF0
:1044C000800080003435363702040101400EFF1FA2
:1044D000900EFF1F400EFF1F400EFF1F400EFF1FDC
:1044E000310CFF1F180CFF1F00000000000000002F
:1044F00000000000000000000000000000000000BC
:1045000000000000000000000000000000000000AB
:1045100000000000000000000000183C3C3C18189F
:1045200018001818000000000066666624000000ED
:1045300000000000000000000000006C6CFE6C6CCD
:104540006CFE6C6C0000000018187CC6C2C07C06B3
:1045500086C67C181800000000000000C2C60C18B7
:104560003060C686000000000000386C6C3876DCD5
:10457000CCCCCC7600000000003030306000000071
:10458000000000000000000000000C183030303047
:104590003030180C00000000000030180C0C0C0C1F
:1045A0000C0C1830000000000000000000663CFF0A
:1045B0003C66000000000000000000000018187EAB
:1045C00018180000000000000000000000000000BB
:1045D000001818183000000000000000000000FE65
:1045E00000000000000000000000000000000000CB
:1045F00000001818000000000000000002060C185F
:104600003060C0800000000000007CC6C6CED6D658
:10461000E6C6C67C0000000000001838781818189C
:104620001818187E0000000000007CC6060C183028
:1046300060C0C6FE0000000000007CC606063C0606
:104640000606C67C0000000000000C1C3C6CCCFE82
:104650000C0C0C1E000000000000FEC0C0C0FC0ED0
:104660000606C67C0000000000003860C0C0FCC622
:10467000C6C6C67C000000000000FEC606060C1878
:10468000303030300000000000007CC6C6C67CC65A
:10469000C6C6C67C0000000000007CC6C6C67E06FA
:1046A00006060C780000000000000000181800004A
:1046B000001818000000000000000000181800009A
:1046C0000018183000000000000000060C183060D0
:1046D00030180C0600000000000000000000FE0082
:1046E00000FE0000000000000000006030180C0612
:1046F0000C1830600000000000007CC6C60C1818C2
:1047000018001818000000000000007CC6C6DEDE9D
:10471000DEDCC07C00000000000010386CC6C6FE65
:10472000C6C6C6C6000000000000FC6666667C6661
:10473000666666FC0000000000003C66C2C0C0C0A7
:10474000C0C2663C000000000000F86C6666666649
:1047500066666CF8000000000000FE66626878681B
:10476000606266FE000000000000FE666268786815
:10477000606060F00000000000003C66C2C0C0DE67
:10478000C6C6663A000000000000C6C6C6C6FEC621
:10479000C6C6C6C60000000000003C18181818184D
:1047A0001818183C0000000000001E0C0C0C0C0C2B
:1047B000CCCCCC78000000000000E6666C6C787809
:1047C0006C6666E6000000000000F06060606060FB
:1047D000606266FE000000000000C6EEFEFED6C667
:1047E000C6C6C6C6000000000000C6E6F6FEDECE65
:1047F000C6C6C6C6000000000000386CC6C6C6C6E5
:10480000C6C66C38000000000000FC6666667C606E
:10481000606060F00000000000007CC6C6C6C6C62E
:10482000C6D6DE7C0C0E00000000FC6666667C6C62
:10483000666666E60000000000007CC6C660380CB4
:1048400006C6C67C0000000000007E7E5A181818BC
:104850001818183C000000000000C6C6C6C6C6C630
:10486000C6C6C67C000000000000C6C6C6C6C6C6D6
:10487000C66C3810000000000000C6C6C6C6C6D60A
:10488000D6FE6C6C000000000000C6C66C6C3838A8
:104890006C6CC6C6000000000000666666663C18C8
:1048A0001818183C000000000000FEC6860C1830E6
:1048B00060C2C6FE0000000000003C3030303030E6
:1048C0003030303C0000000000000080C0E0703854
:1048D0001C0E06020000000000003C0C0C0C0C0C2E
:1048E0000C0C0C3C0000000010386CC600000000EE
:1048F00000000000000000000000000000000000B8
:104900000000000000FF0000303018000000000030
:1049100000000000000000000000000000780C7C97
:10492000CCCCCC76000000000000E06060786C66C3
:10493000666666DC0000000000000000007CC6C067
:10494000C0C0C67C0000000000001C0C0C3C6CCCFD
:10495000CCCCCC760000000000000000007CC6FE3D
:10496000C0C0C67C000000000000386C6460F060CD
:10497000606060F000000000000000000076CCCC19
:10498000CCCCCC7C0CCC78000000E060606C76660F
:10499000666666E600000000000018180038181867
:1049A0001818183C0000000000000606000E06065D
:1049B0000606060666663C000000E06060666C78ED
:1049C000786C66E600000000000038181818181807
:1049D0001818183C000000000000000000ECFED693
:1049E000D6D6D6D6000000000000000000DC6666C7
:1049F000666666660000000000000000007CC6C617
:104A0000C6C6C67C000000000000000000DC666630
:104A10006666667C6060F000000000000076CCCC2A
:104A2000CCCCCC7C0C0C1E000000000000DC7662BC
:104A3000606060F00000000000000000007CC660C4
:104A4000380CC67C000000000000103030FC303014
:104A50003030361C000000000000000000CCCCCC40
:104A6000CCCCCC760000000000000000006666663A
:104A700066663C18000000000000000000C6C6C6C4
:104A8000D6D6FE6C000000000000000000C66C38A6
:104A900038386CC6000000000000000000C6C6C622
:104AA000C6C6C67E060CF8000000000000FECC184A
:104AB0003060C6FE0000000000000E1818187018C4
:104AC0001818180E00000000000018181818001818
:104AD00018181818000000000000701818180E1898
:104AE0001818187000000000000076DC00000000BC
:104AF00000000000000000000000000010386CC63C
:104B0000C6C6FE0000000000DFF800F0D50DFF1F54
:104B1000DFF8B41340B231F8201040B20128C0F2DF
:104B2000788140B2162880F274810022DFF89C332D
:104B30001A7089B2652904DA0022DFF890335A70BE
:104B40007DE089B2C92904DA0122DFF880335A7086
:104B500075E089B2B1F5967F04DC0222DFF86C3390
:104B60005A706CE089B2B1F5C87F04DC0322DFF82B
:104B70005C335A7063E089B2B1F5FA7F04DC042239
:104B8000DFF848335A705AE089B2B1F5167F04DC79
:104B90000522DFF838335A7051E089B2B1F52F7F22
:104BA00004DC0622DFF824335A7048E089B2B1F5FC
:104BB000487F04DC0722DFF814335A703FE089B2E3
:104BC000B1F5617F04DC0822DFF800335A7036E06B
:104BD00089B2B1F57A7F04DC0922DFF8F0325A702D
:104BE0002DE089B240F24D42914203DA0A22B74BDE
:104BF0005A7024E089B2B1F5966F03DC0B22B34BF7
:104C00005A701CE089B240F21552914203DA0C222C
:104C1000AE4B5A7013E089B2B1F5AF6F03DC0D22D1
:104C2000AA4B5A700BE089B240F2DD52914203DA8E
:104C30000E22A64B5A7002E00F22A44B5A7089B282
:104C4000332903DA0022A14B9A7071E089B26529F9
:104C500003DA01229D4B9A706AE089B2972903DA40
:104C600002229A4B9A7063E089B2C92903DA0322BF
:104C7000964B9A705CE089B2FB2903DA0422934BCD
:104C80009A7055E089B2B1F5967F03DC05228F4B0F
:104C90009A704DE089B2B1F5AF7F03DC06228B4BF1
:104CA0009A7045E089B2B1F5C87F03DC0722874BD3
:104CB0009A703DE089B2B1F5E17F03DC0822834BB5
:104CC0009A7035E089B2B1F5FA7F03DC09227F4B97
:104CD0009A702DE089B240F22722914203DA0A222B
:104CE0007A4B9A7024E089B2B1F5167F03DC0B226F
:104CF000764B9A701CE089B240F28B22914203DA23
:104D00000C22724B9A7013E089B2B1F52F7F03DC4D
:104D10000D226E4B9A700BE089B240F2EF22914265
:104D200003DA0E22694B9A7002E00F22674B9A70E9
:104D300089B21A2903DA0022644BDA7069E089B279
:104D4000332903DA0122614BDA7062E089B24C291F
:104D500003DA02225D4BDA705BE089B2652903DA7F
:104D600003225A4BDA7054E089B27E2903DA042216
:104D7000564BDA704DE089B2972903DA0522534B7E
:104D8000DA7046E089B2B02903DA06224F4BDA70B6
:104D90003FE089B2C92903DA07224C4BDA7038E0C8
:104DA00089B2E22903DA0822484BDA7031E089B28D
:104DB000FB2903DA0922454BDA702AE089B2B1F502
:104DC0008A7F03DA0A22414BDA7022E089B2B1F518
:104DD000967F03DC0B223D4BDA701AE089B2B1F505
:104DE000A37F03DA0C22394BDA7012E089B2B1F5F5
:104DF000AF7F03DC0D22354BDA700AE089B2B1F5E2
:104E0000BC7F03DA0E22314BDA7002E00F222F4B07
:104E1000DA70704710B50400200040B2FFF778FE4A
:104E20002B48007810F0FD002949087028480078C8
:104E300050F0100026490870B8202649087026480E
:104E40000078C006FBD424480078C0F38100C0B2CB
:104E50000228F8D11D48C3781C4882781B48417845
:104E60001A480078FFF750FE174864B210EB840030
:104E7000807810F0070019490870134864B210EBED
:104E80008400C07810F01F0050F0400014490870F2
:104E9000114800788006FBD50F4800784006FBD506
:104EA0000C48007810F03F000A4908700A48007862
:104EB000C0F38100C0B20328F8D1034864B230F8CF
:104EC0002400C0B210BD00005C0BFF1FB40BFF1F1D
:104ED00001400640004006400640064004400640AF
:104EE0000540064038B504000D0064B2002C06D021
:104EF000022C69D04CD3032C00F08280C7E0DFF88D
:104F00002C03006850F08070DFF8201308606DB249
:104F1000002D0BD0022D15D00ED3042D1ED017D38B
:104F2000062D27D020D3072D2AD02FE04FF4806103
:104F30004120FDF71FF92AE04FF440710420FDF7EE
:104F400019F924E04FF440710520FDF713F91EE034
:104F50004FF440710620FDF70DF918E04FF4407151
:104F60000720FDF707F912E04FF480616520FDF797
:104F700001F90CE04FF480616620FDF7FBF806E0D4
:104F80004FF480616720FDF7F5F800E07FE07EE0F8
:104F9000DFF89802006850F00070DFF890120860A7
:104FA0006DB2002D02D0012D06D00BE04FF4407100
:104FB0000C20FDF7DFF806E04FF440710D20FDF7FF
:104FC000D9F800E063E062E0DFF86402006850F0C6
:104FD0008070DFF85C1208606DB2002D02D0012DE8
:104FE00006D00BE04FF440710A20FDF7C3F806E04D
:104FF0004FF440710B20FDF7BDF800E047E046E0BC
:10500000DFF82C02006850F00070DFF8241208600E
:105010006DB2002D0BD0022D15D00ED3042D1ED055
:1050200017D3062D27D020D3072D2AD02EE04FF4FA
:10503000C0618520FDF79EF828E04FF4C06186200E
:10504000FDF798F822E04FF4C0618720FDF792F851
:105050001CE04FF4C0618820FDF78CF816E04FF497
:10506000C0618920FDF786F810E04FF4C0618A2006
:10507000FDF780F80AE04FF4C0618B20FDF77AF865
:1050800004E04FF4C0618C20FDF774F8FFE731BDF8
:105090002DE9F84F04000D0016001F0064B2002C2B
:1050A00011D064B2012C02D064B2022C02D16DB2D4
:1050B000022D08DB64B2032C05D04FF4C271DFF877
:1050C0007401FDF7F6F8290049B2200040B2FFF75D
:1050D00009FFDFF8640100684FF47A7148438046A5
:1050E0005FEA1840B0FBF6F08146002082461FFAC6
:1050F00089F9484650FA0AF0012802DB1AF1010A40
:10510000F5E75FFA8AFABAF1080F05DB40F29F1162
:10511000DFF82001FDF7CDF8404630FA0AF0B0FB89
:10512000F6F0814664B2002C05D0022C19D00DD3C4
:10513000032C21D02BE01FFA89F919F1010000FBA3
:1051400007F06421B0FBF1F0834620E01FFA89F9F3
:1051500019F1010000FB07F06421B0FBF1F0834678
:1051600015E01FFA89F919F1010000FB07F064212D
:10517000B0FBF1F083460AE01FFA89F919F101004A
:1051800000FB07F06421B0FBF1F08346FFE7DFF896
:10519000AC0064B250F824006DB210EBC500DFF82B
:1051A0009C1064B251F824106DB211EBC501C968AE
:1051B00031F00401C160DFF8840064B250F82400CB
:1051C0006DB210EBC5002821C1605FFA8AFA1AF0AF
:1051D000070050F00800DFF8641064B251F82410A2
:1051E00008601FFA89F9DFF8540064B250F824000F
:1051F000C0F808900020DFF8441064B251F8241081
:10520000C864DFF8380064B250F824006DB210EBC7
:10521000C5001FFA8BFBC0F810B00020DFF81C108F
:1052200064B251F824104860BDE8F18F3C8004401E
:1052300030800440B86200003C0EFF1F380BFF1F97
:1052400010B582B0DFF81C030468FBF7E5F8FCF743
:10525000E4FEADF80000FCF7DDFEADF802004FF40F
:1052600078420099200000F001F813BDF2B5040067
:10527000150000992000FCF7BFFDBDF80000BDF847
:105280000210484307000120DFF8DC12086000200C
:10529000DFF8D81208600020DFF8D41208602C2054
:1052A000DFF8D01208700020DFF8CC12086001206F
:1052B000DFF8C41208600120DFF8B4120860002093
:1052C0000600BE4239D20120DFF89C12086001209E
:1052D000DFF8981208600020DFF894120860ADB281
:1052E000280ADFF8901208700020DFF88C1208609E
:1052F0000120DFF8841208600120DFF874120860D2
:105300000120DFF8641208600120DFF860120860F5
:105310000020DFF85C120860DFF8580205700020FA
:10532000DFF8541208600120DFF84C1208600120F9
:10533000DFF83C120860761CC3E7F1BD2DE9F147A8
:1053400081B00C0015001E00DFF83002D0F800A07C
:10535000FCF763FE0838BDF80410884206DBFCF752
:1053600059FE1038BDF80610884200DAB3E0514605
:105370000198FCF741FD0120DFF8EC1108600020E6
:10538000DFF8E81108600020DFF8E41108602C2045
:10539000DFF8E01108700020DFF8DC110860012060
:1053A000DFF8D41108600120DFF8C4110860002084
:1053B00081465FFA89F9B9F1100F80F28C80DFF82D
:1053C000C001E4B2210151FA89F10818B0F500706A
:1053D00000780700002080465FFA88F8B8F1080FCF
:1053E00076DA380638D50120DFF87C110860012014
:1053F000DFF8781108600020DFF874110860ADB2A2
:10540000280ADFF8701108700020DFF86C110860BE
:105410000120DFF8641108600120DFF854110860F2
:105420000120DFF8441108600120DFF84011086016
:105430000020DFF83C110860DFF83801057000201B
:10544000DFF8341108600120DFF82C11086001201A
:10545000DFF81C11086037E00120DFF80C1108604C
:105460000120DFF8081108600020DFF8041108604F
:10547000B6B2300ADFF8FC1008700020DFF8F81030
:1054800008600120DFF8F01008600120DFF8E0106C
:1054900008600120DFF8D01008600120DFF8CC1090
:1054A00008600020DFF8C8100860DFF8C800067048
:1054B0000020DFF8C41008600120DFF8BC1008608D
:1054C0000120DFF8AC1008607F0018F1010883E7C5
:1054D00019F101096DE7BDE8F3872DE9F14181B0CC
:1054E0000C0015001E0027005FF00008BDF8060044
:1054F000ADF80200002C08D133009BB22A0092B212
:1055000030210198FFF71AFF29E0002F05D00A206B
:10551000B7FBF0F718F10108F7E7002C1FD0BDF832
:1055200004005FFA88F81FFA88F810EBC800083802
:10553000ADF80000B8F101080A2033009BB22A0040
:1055400092B2B4FBF0F100FB114010F13001C9B28E
:105550000098FFF7F3FE0A20B4FBF0F4DDE7BDE8A6
:10556000F3810000186400002810FE433010FE4351
:105570002C10FE4380F00F402410FE431C640000FA
:105580000845000038B5040064B26511EDB2002D85
:1055900002D0012D11D021E0A348006850F0006036
:1055A000A1490860A148006830F090009F49086058
:1055B0009E4800689D49086014E09D48006850F0CE
:1055C00000609B4908609948006830F41040974992
:1055D0000860964800689549086003E033219548C3
:1055E000FCF767FE64B22000002800F089800128E3
:1055F00000F08680032800F0838008284ED0092818
:1056000051D00A2854D00B2857D00C285AD00D2836
:105610005DD00E2860D00F2863D0102870D01128DC
:1056200064D0122867D013286AD0142868D01A28AA
:1056300066D01D2864D01E2862D0202861D0212881
:105640005FD023285DD024285CD025285FD0262871
:1056500062D0272865D0282868D029286BD02A282E
:105660006ED02B2871D02C2874D02D2877D02E28DE
:105670007AD02F287DD0302800F0858031287DD049
:10568000322800F0808033287DD034287BD03A281F
:1056900079D03D2877D03E2875D075E000212020B4
:1056A000FCF768FD74E000212120FCF763FD6FE04A
:1056B00000210720FCF75EFD6AE000210820FCF7CE
:1056C00059FD65E000212220FCF754FD60E0002137
:1056D0002320FCF74FFD5BE000214020FCF74AFD52
:1056E00056E000214120FCF745FD51E000219820C3
:1056F000FCF740FD4CE000219920FCF73BFD47E022
:1057000046E045E000218020FCF734FD40E0002128
:105710008120FCF72FFD3BE000218220FCF72AFDD1
:1057200036E000218320FCF725FD31E00021202018
:10573000FCF720FD2CE000212120FCF71BFD27E0D9
:1057400000212420FCF716FD22E000212520FCF793
:1057500011FD1DE000212620FCF70CFD18E00021C2
:105760002720FCF707FD13E000212A20FCF702FDAB
:105770000EE000212B20FCF7FDFC09E000211120A8
:10578000FCF7F8FC04E003E09A212A48FCF791FDBD
:1057900031BDF8B504000D0064B266110027290080
:1057A00049B2200040B200F01CF8234876B250F80D
:1057B000260000680006F8D51F4876B250F826008B
:1057C000006907001C4876B250F82600006830F0E7
:1057D0008000194976B251F826100860380080B26E
:1057E000F2BD30B440B2421110F01F0349B28C0038
:1057F00014F00C0454F050040F4D52B255F82250DE
:10580000AC6004240C4D52B255F82250EC60DBB26F
:1058100013F01F0454F04004074D52B255F82250C3
:105820002C6030BC704700003C800440188004406D
:1058300030800440846200002804FF1FDFF800F07D
:10584000B3220000DFF800F05B220000F020544992
:105850000870534800780006FBD551480078712144
:10586000084201D0002000E00120704780B54D487B
:10587000006850F400204B49086049480078000651
:10588000FBD5F020464908700A20FFF7DBFF01BD79
:1058900010B582B00400A4B24FF4805000FB04F0B5
:1058A00000900920404908709DF802003F490870A7
:1058B0009DF801003E4908709DF800003D490870C0
:1058C000FFF7C4FF002801D100200EE0A4B2002C95
:1058D0000AD15FF0FF327FF001034FF481612000B5
:1058E00080B200F003F800E0012016BDF0B583B0EF
:1058F00006000F0014001D00B6B24FF48050BFB276
:1059000000FB06700190BFB2082097FBF0F101FB8D
:105910001071002903D0EA212748FFF78FFFBFB29B
:10592000B7F5805F03DDEC212348FFF787FF9DF883
:1059300006001E4908709DF805001D4908709DF875
:1059400004001C49087000949DF803001B4908706E
:105950009DF802001A4908709DF801001949087065
:105960009DF800001849087007200F49087000953D
:105970009DF80300154908709DF80200144908704D
:105980009DF80100134908709DF800001249087045
:10599000FFF75CFF002801D1002000E00120FEBDE0
:1059A0000000024004F001400700024006000240EF
:1059B0000500024004000240A46100000B00024008
:1059C0000A00024009000240080002400F000240A5
:1059D0000E0002400D0002400C000240F0B4114ED7
:1059E000366834000F4E366856F47F060D4F3E6021
:1059F0000E0616F0706656EA0076170517F4700763
:105A00003E431F0417F470273E43074F3E600026B5
:105A10003500EDB29D4201D26D1CFAE7014E3460B3
:105A2000F0BC704700F001404480044080B5002184
:105A30001120FFF7AEFE00F0BFF8394908600021E1
:105A40001220FFF7A6FE00F0B7F83649086001BD46
:105A500038B53548006800F0A5F801003048006806
:105A600000F0BAF8314900F02BF904003048006822
:105A70002D490968401A00F095F80100200000F057
:105A80008BF900F007FA04002748406800F08AF814
:105A900001002448006800F09FF8244900F010F944
:105AA00005002348406820494968401A00F07AF808
:105AB0000100280000F070F900F0ECF90500012C5D
:105AC00001DA00200400012D01DA00200500642C19
:105AD00001DB64200400642D01DB6420050015480F
:105AE0000460154805604FF478431F22114801688F
:105AF00012480068FFF7F1FC4FF478431F220E486C
:105B000001680F480068FFF7E8FC31BD80B54FF42D
:105B1000BE63642200210120FFF7BAFA01BD000034
:105B2000240EFF1F280EFF1F2004FF1F0000C84285
:105B30001804FF1F2C0EFF1F300EFF1F1004FF1F45
:105B40001404FF1F80B5002344F6206205210020C5
:105B5000FFF79EFA002344F6206206210020FFF79B
:105B600097FA002344F6206203210020FFF790FA01
:105B7000002344F6206204210020FFF789FA01BDCA
:105B800080B51120FFF7FEFC1220FFF7FBFCFFF7AA
:105B900057FBFFF7BBFFFFF7D5FFFFF747FFFFF707
:105BA00057FFFAE7002840F10980F446404200F030
:105BB00005F850F000406047002800BF0AD0B0FA56
:105BC00080F18840D1F19D01C905020672F10042C1
:105BD00041EB10207047000090EA010F44BF81F0B4
:105BE000004100F079B900BF431A4FF000423EBFB8
:105BF0005340C01AC91800BFD3095FEAD05C13EB49
:105C0000400F34BFB3EB410F40E07CEBD1530CD3DA
:105C100042EA012122D8D1EB402009D3400A28BF13
:105C20005FEA500140EBCC507047401A15D040025B
:105C3000B0FA80F2521C9040400A4FEA3C23B3EB8A
:105C4000026384BF00EB730007E040F400001A1603
:105C5000DB07C2F10102D04018437047182BFCDC6F
:105C600031FA03F202FA03F3591A38BF42F0010283
:105C7000D2EB40203CBF4000ACF1010C5FEACC5CB1
:105C8000C20572F100414CEB5020704713EB400FFE
:105C90000FD24B0009D0ACEBD153022B03DB4902EE
:105CA000172BDDDD70479143401A4300D5D100200A
:105CB000704713EB410FD0D36FF000007047000026
:105CC000FF2212EAD05C1DBF12EAD15394459342E1
:105CD0002BE09C44D30780EA01021A4043EA0020EB
:105CE00043EA0121A1FB0030410038BF40007CF1B4
:105CF0007F010BDBFE294ADA5B0842EAC15153EA15
:105D0000006373F1004C51EB10207047D1F1080C87
:105D1000DCF120012FDB5B0810FA01F10B4373F17A
:105D2000004120FA0CF05041704794451CBF02EA34
:105D3000D153934280EA010202F000421DD040009C
:105D400019D0490017D05BB9634514D00902B1FAE4
:105D500081F39940BCEB030CC00140F00040C1E767
:105D60000002B0FA80FC10FA0CF0B3EB0C0CC90185
:105D700041F00041B6E71000704740000AD04900EA
:105D800008D010F1807F94BF11F1807F02E042F0D3
:105D9000FF407047D043704710B5FF2313EAD0543B
:105DA0001DBF13EAD1529C429A4239E0A41ADA0785
:105DB00080EA0103134042EA012142EA0020421A2C
:105DC0003CBF641E01EB4202090AB2FBF1FE01FB7B
:105DD0001E221202B2FBF1F001FB10226EF30F2023
:105DE0001202B2FBF1FE4EEA00207F3406DDFE2CEB
:105DF00024DA53EA500050EBC45010BDD4F1020431
:105E000001FB1E2240F08071192C1DDC21FA04F0E8
:105E1000C4F12004A140114371F10042584110BD6A
:105E20009C421ABF03EAD1529A420FE080EA010E67
:105E30000EF00043400004D0490016D143F0FF406B
:105E400010BD490008BFD343180010BD9C4205D1C6
:105E5000D21AF7D001F00041484010BD4A0212BFEB
:105E60000846484000F0004010BD4AB90902B1FAA6
:105E700081F2914044B1A418C00140F000409EE777
:105E8000C90141F0004152420002B0FA80F4A04042
